{
  "contractName": "ContractOwner",
  "abi": [
    {
      "inputs": [],
      "stateMutability": "nonpayable",
      "type": "constructor"
    },
    {
      "inputs": [
        {
          "internalType": "string",
          "name": "_code",
          "type": "string"
        },
        {
          "internalType": "string",
          "name": "_title",
          "type": "string"
        },
        {
          "internalType": "string",
          "name": "_description",
          "type": "string"
        },
        {
          "internalType": "address",
          "name": "_account",
          "type": "address"
        }
      ],
      "name": "saveIdea",
      "outputs": [],
      "stateMutability": "nonpayable",
      "type": "function"
    },
    {
      "inputs": [
        {
          "internalType": "address",
          "name": "_account",
          "type": "address"
        }
      ],
      "name": "getIdeasByIdeatorAddress",
      "outputs": [
        {
          "components": [
            {
              "internalType": "string",
              "name": "code",
              "type": "string"
            },
            {
              "internalType": "string",
              "name": "title",
              "type": "string"
            },
            {
              "internalType": "string",
              "name": "description",
              "type": "string"
            },
            {
              "internalType": "uint8",
              "name": "amount",
              "type": "uint8"
            },
            {
              "internalType": "address",
              "name": "ideaOwner",
              "type": "address"
            }
          ],
          "internalType": "struct ContractOwner.idea_info",
          "name": "tempIdea",
          "type": "tuple"
        }
      ],
      "stateMutability": "view",
      "type": "function",
      "constant": true
    },
    {
      "inputs": [],
      "name": "getIdeas",
      "outputs": [
        {
          "components": [
            {
              "internalType": "string",
              "name": "code",
              "type": "string"
            },
            {
              "internalType": "string",
              "name": "title",
              "type": "string"
            },
            {
              "internalType": "string",
              "name": "description",
              "type": "string"
            },
            {
              "internalType": "uint8",
              "name": "amount",
              "type": "uint8"
            },
            {
              "internalType": "address",
              "name": "ideaOwner",
              "type": "address"
            }
          ],
          "internalType": "struct ContractOwner.idea_info[]",
          "name": "",
          "type": "tuple[]"
        }
      ],
      "stateMutability": "view",
      "type": "function",
      "constant": true
    },
    {
      "inputs": [
        {
          "internalType": "string",
          "name": "_code",
          "type": "string"
        }
      ],
      "name": "getIdeaByCode",
      "outputs": [
        {
          "components": [
            {
              "internalType": "string",
              "name": "code",
              "type": "string"
            },
            {
              "internalType": "string",
              "name": "title",
              "type": "string"
            },
            {
              "internalType": "string",
              "name": "description",
              "type": "string"
            },
            {
              "internalType": "uint8",
              "name": "amount",
              "type": "uint8"
            },
            {
              "internalType": "address",
              "name": "ideaOwner",
              "type": "address"
            }
          ],
          "internalType": "struct ContractOwner.idea_info",
          "name": "tempIdea",
          "type": "tuple"
        }
      ],
      "stateMutability": "view",
      "type": "function",
      "constant": true
    },
    {
      "inputs": [
        {
          "internalType": "string",
          "name": "_code",
          "type": "string"
        },
        {
          "internalType": "uint8",
          "name": "_amount",
          "type": "uint8"
        },
        {
          "internalType": "address",
          "name": "_account",
          "type": "address"
        }
      ],
      "name": "receiveIdeaDonations",
      "outputs": [],
      "stateMutability": "nonpayable",
      "type": "function"
    },
    {
      "inputs": [],
      "name": "getIdeaCodes",
      "outputs": [
        {
          "internalType": "string[]",
          "name": "codes",
          "type": "string[]"
        }
      ],
      "stateMutability": "view",
      "type": "function",
      "constant": true
    },
    {
      "inputs": [
        {
          "internalType": "address",
          "name": "_account",
          "type": "address"
        }
      ],
      "name": "getIdeaOnInvestor",
      "outputs": [
        {
          "internalType": "string[]",
          "name": "ideaCodes",
          "type": "string[]"
        }
      ],
      "stateMutability": "view",
      "type": "function",
      "constant": true
    },
    {
      "inputs": [
        {
          "internalType": "string",
          "name": "_code",
          "type": "string"
        }
      ],
      "name": "getInvestorsOnIdeaCode",
      "outputs": [
        {
          "internalType": "address[]",
          "name": "ideaInvestors",
          "type": "address[]"
        }
      ],
      "stateMutability": "view",
      "type": "function",
      "constant": true
    },
    {
      "inputs": [],
      "name": "getIdeatorContractAddress",
      "outputs": [
        {
          "internalType": "address",
          "name": "ideatorAddr",
          "type": "address"
        }
      ],
      "stateMutability": "view",
      "type": "function",
      "constant": true
    },
    {
      "inputs": [],
      "name": "getInvestorContractAddress",
      "outputs": [
        {
          "internalType": "address",
          "name": "investorAddr",
          "type": "address"
        }
      ],
      "stateMutability": "view",
      "type": "function",
      "constant": true
    }
  ],
  "bytecode": "0x60806040523480156200001157600080fd5b5030604051620000219062000109565b6200002d919062000136565b604051809103906000f0801580156200004a573d6000803e3d6000fd5b506000806101000a81548173ffffffffffffffffffffffffffffffffffffffff021916908373ffffffffffffffffffffffffffffffffffffffff16021790555030604051620000999062000117565b620000a5919062000136565b604051809103906000f080158015620000c2573d6000803e3d6000fd5b50600160006101000a81548173ffffffffffffffffffffffffffffffffffffffff021916908373ffffffffffffffffffffffffffffffffffffffff16021790555062000187565b610f98806200203f83390190565b6113a08062002fd783390190565b620001308162000153565b82525050565b60006020820190506200014d600083018462000125565b92915050565b6000620001608262000167565b9050919050565b600073ffffffffffffffffffffffffffffffffffffffff82169050919050565b611ea880620001976000396000f3fe608060405234801561001057600080fd5b506004361061009e5760003560e01c8063a5647c9e11610066578063a5647c9e1461015d578063b9a5e91f14610179578063bf91fc71146101a9578063edd8ade1146101c5578063f5ecafb6146101e35761009e565b806304485841146100a3578063111a2702146100c15780631fcf5c8e146100f1578063330c08dd1461010f5780638a875e7f1461013f575b600080fd5b6100ab610213565b6040516100b89190611b8b565b60405180910390f35b6100db60048036038101906100d691906115ba565b61049b565b6040516100e89190611bad565b60405180910390f35b6100f96107d9565b6040516101069190611b69565b60405180910390f35b61012960048036038101906101249190611591565b61099e565b6040516101369190611bad565b60405180910390f35b610147610cfc565b6040516101549190611b2c565b60405180910390f35b610177600480360381019061017291906116b8565b610d25565b005b610193600480360381019061018e9190611591565b610f9d565b6040516101a09190611b69565b60405180910390f35b6101c360048036038101906101be91906115ff565b6110b5565b005b6101cd6112d3565b6040516101da9190611b2c565b60405180910390f35b6101fd60048036038101906101f891906115ba565b6112fd565b60405161020a9190611b47565b60405180910390f35b60606002805480602002602001604051908101604052809291908181526020016000905b8282101561049257838290600052602060002090600402016040518060a001604052908160008201805461026a90611d79565b80601f016020809104026020016040519081016040528092919081815260200182805461029690611d79565b80156102e35780601f106102b8576101008083540402835291602001916102e3565b820191906000526020600020905b8154815290600101906020018083116102c657829003601f168201915b505050505081526020016001820180546102fc90611d79565b80601f016020809104026020016040519081016040528092919081815260200182805461032890611d79565b80156103755780601f1061034a57610100808354040283529160200191610375565b820191906000526020600020905b81548152906001019060200180831161035857829003601f168201915b5050505050815260200160028201805461038e90611d79565b80601f01602080910402602001604051908101604052809291908181526020018280546103ba90611d79565b80156104075780601f106103dc57610100808354040283529160200191610407565b820191906000526020600020905b8154815290600101906020018083116103ea57829003601f168201915b505050505081526020016003820160009054906101000a900460ff1660ff1660ff1681526020016003820160019054906101000a900473ffffffffffffffffffffffffffffffffffffffff1673ffffffffffffffffffffffffffffffffffffffff1673ffffffffffffffffffffffffffffffffffffffff168152505081526020019060010190610237565b50505050905090565b6104a36113ac565b60005b6002805490508160ff1610156107d15783836040516104c6929190611ae3565b604051809103902060028260ff168154811061050b577f4e487b7100000000000000000000000000000000000000000000000000000000600052603260045260246000fd5b90600052602060002090600402016000016040516105299190611afc565b604051809103902014156107be5760028160ff1681548110610574577f4e487b7100000000000000000000000000000000000000000000000000000000600052603260045260246000fd5b90600052602060002090600402016040518060a001604052908160008201805461059d90611d79565b80601f01602080910402602001604051908101604052809291908181526020018280546105c990611d79565b80156106165780601f106105eb57610100808354040283529160200191610616565b820191906000526020600020905b8154815290600101906020018083116105f957829003601f168201915b5050505050815260200160018201805461062f90611d79565b80601f016020809104026020016040519081016040528092919081815260200182805461065b90611d79565b80156106a85780601f1061067d576101008083540402835291602001916106a8565b820191906000526020600020905b81548152906001019060200180831161068b57829003601f168201915b505050505081526020016002820180546106c190611d79565b80601f01602080910402602001604051908101604052809291908181526020018280546106ed90611d79565b801561073a5780601f1061070f5761010080835404028352916020019161073a565b820191906000526020600020905b81548152906001019060200180831161071d57829003601f168201915b505050505081526020016003820160009054906101000a900460ff1660ff1660ff1681526020016003820160019054906101000a900473ffffffffffffffffffffffffffffffffffffffff1673ffffffffffffffffffffffffffffffffffffffff1673ffffffffffffffffffffffffffffffffffffffff16815250509150506107d3565b80806107c990611dab565b9150506104a6565b505b92915050565b606060028054905067ffffffffffffffff811115610820577f4e487b7100000000000000000000000000000000000000000000000000000000600052604160045260246000fd5b60405190808252806020026020018201604052801561085357816020015b606081526020019060019003908161083e5790505b50905060005b6002805490508160ff16101561099a5760028160ff16815481106108a6577f4e487b7100000000000000000000000000000000000000000000000000000000600052603260045260246000fd5b906000526020600020906004020160000180546108c290611d79565b80601f01602080910402602001604051908101604052809291908181526020018280546108ee90611d79565b801561093b5780601f106109105761010080835404028352916020019161093b565b820191906000526020600020905b81548152906001019060200180831161091e57829003601f168201915b5050505050828260ff168151811061097c577f4e487b7100000000000000000000000000000000000000000000000000000000600052603260045260246000fd5b6020026020010181905250808061099290611dab565b915050610859565b5090565b6109a66113ac565b60005b6002805490508160ff161015610cf5578273ffffffffffffffffffffffffffffffffffffffff1660028260ff1681548110610a0d577f4e487b7100000000000000000000000000000000000000000000000000000000600052603260045260246000fd5b906000526020600020906004020160030160019054906101000a900473ffffffffffffffffffffffffffffffffffffffff1673ffffffffffffffffffffffffffffffffffffffff161415610ce25760028160ff1681548110610a98577f4e487b7100000000000000000000000000000000000000000000000000000000600052603260045260246000fd5b90600052602060002090600402016040518060a0016040529081600082018054610ac190611d79565b80601f0160208091040260200160405190810160405280929190818152602001828054610aed90611d79565b8015610b3a5780601f10610b0f57610100808354040283529160200191610b3a565b820191906000526020600020905b815481529060010190602001808311610b1d57829003601f168201915b50505050508152602001600182018054610b5390611d79565b80601f0160208091040260200160405190810160405280929190818152602001828054610b7f90611d79565b8015610bcc5780601f10610ba157610100808354040283529160200191610bcc565b820191906000526020600020905b815481529060010190602001808311610baf57829003601f168201915b50505050508152602001600282018054610be590611d79565b80601f0160208091040260200160405190810160405280929190818152602001828054610c1190611d79565b8015610c5e5780601f10610c3357610100808354040283529160200191610c5e565b820191906000526020600020905b815481529060010190602001808311610c4157829003601f168201915b505050505081526020016003820160009054906101000a900460ff1660ff1660ff1681526020016003820160019054906101000a900473ffffffffffffffffffffffffffffffffffffffff1673ffffffffffffffffffffffffffffffffffffffff1673ffffffffffffffffffffffffffffffffffffffff1681525050915050610cf7565b8080610ced90611dab565b9150506109a9565b505b919050565b60008060009054906101000a900473ffffffffffffffffffffffffffffffffffffffff16905090565b60005b6002805490508160ff161015610e9a578484604051610d48929190611ae3565b604051809103902060028260ff1681548110610d8d577f4e487b7100000000000000000000000000000000000000000000000000000000600052603260045260246000fd5b9060005260206000209060040201600001604051610dab9190611afc565b60405180910390201415610e87578260028260ff1681548110610df7577f4e487b7100000000000000000000000000000000000000000000000000000000600052603260045260246000fd5b906000526020600020906004020160030160009054906101000a900460ff16610e209190611cc1565b60028260ff1681548110610e5d577f4e487b7100000000000000000000000000000000000000000000000000000000600052603260045260246000fd5b906000526020600020906004020160030160006101000a81548160ff021916908360ff1602179055505b8080610e9290611dab565b915050610d28565b5060038484604051610ead929190611b13565b9081526020016040518091039020819080600181540180825580915050600190039060005260206000200160009091909190916101000a81548173ffffffffffffffffffffffffffffffffffffffff021916908373ffffffffffffffffffffffffffffffffffffffff160217905550600460008273ffffffffffffffffffffffffffffffffffffffff1673ffffffffffffffffffffffffffffffffffffffff168152602001908152602001600020848490918060018154018082558091505060019003906000526020600020016000909192909192909192909192509190610f969291906113f4565b5050505050565b6060600460008373ffffffffffffffffffffffffffffffffffffffff1673ffffffffffffffffffffffffffffffffffffffff168152602001908152602001600020805480602002602001604051908101604052809291908181526020016000905b828210156110aa57838290600052602060002001805461101d90611d79565b80601f016020809104026020016040519081016040528092919081815260200182805461104990611d79565b80156110965780601f1061106b57610100808354040283529160200191611096565b820191906000526020600020905b81548152906001019060200180831161107957829003601f168201915b505050505081526020019060010190610ffe565b505050509050919050565b6110bd6113ac565b87878080601f016020809104026020016040519081016040528093929190818152602001838380828437600081840152601f19601f82011690508083019250505050505050816000018190525085858080601f016020809104026020016040519081016040528093929190818152602001838380828437600081840152601f19601f82011690508083019250505050505050816020018190525083838080601f016020809104026020016040519081016040528093929190818152602001838380828437600081840152601f19601f82011690508083019250505050505050816040018190525081816080019073ffffffffffffffffffffffffffffffffffffffff16908173ffffffffffffffffffffffffffffffffffffffff16815250506002819080600181540180825580915050600190039060005260206000209060040201600090919091909150600082015181600001908051906020019061122492919061147a565b50602082015181600101908051906020019061124192919061147a565b50604082015181600201908051906020019061125e92919061147a565b5060608201518160030160006101000a81548160ff021916908360ff16021790555060808201518160030160016101000a81548173ffffffffffffffffffffffffffffffffffffffff021916908373ffffffffffffffffffffffffffffffffffffffff16021790555050505050505050505050565b6000600160009054906101000a900473ffffffffffffffffffffffffffffffffffffffff16905090565b606060038383604051611311929190611b13565b908152602001604051809103902080548060200260200160405190810160405280929190818152602001828054801561139f57602002820191906000526020600020905b8160009054906101000a900473ffffffffffffffffffffffffffffffffffffffff1673ffffffffffffffffffffffffffffffffffffffff1681526020019060010190808311611355575b5050505050905092915050565b6040518060a00160405280606081526020016060815260200160608152602001600060ff168152602001600073ffffffffffffffffffffffffffffffffffffffff1681525090565b82805461140090611d79565b90600052602060002090601f0160209004810192826114225760008555611469565b82601f1061143b57803560ff1916838001178555611469565b82800160010185558215611469579182015b8281111561146857823582559160200191906001019061144d565b5b5090506114769190611500565b5090565b82805461148690611d79565b90600052602060002090601f0160209004810192826114a857600085556114ef565b82601f106114c157805160ff19168380011785556114ef565b828001600101855582156114ef579182015b828111156114ee5782518255916020019190600101906114d3565b5b5090506114fc9190611500565b5090565b5b80821115611519576000816000905550600101611501565b5090565b60008135905061152c81611e44565b92915050565b60008083601f84011261154457600080fd5b8235905067ffffffffffffffff81111561155d57600080fd5b60208301915083600182028301111561157557600080fd5b9250929050565b60008135905061158b81611e5b565b92915050565b6000602082840312156115a357600080fd5b60006115b18482850161151d565b91505092915050565b600080602083850312156115cd57600080fd5b600083013567ffffffffffffffff8111156115e757600080fd5b6115f385828601611532565b92509250509250929050565b60008060008060008060006080888a03121561161a57600080fd5b600088013567ffffffffffffffff81111561163457600080fd5b6116408a828b01611532565b9750975050602088013567ffffffffffffffff81111561165f57600080fd5b61166b8a828b01611532565b9550955050604088013567ffffffffffffffff81111561168a57600080fd5b6116968a828b01611532565b935093505060606116a98a828b0161151d565b91505092959891949750929550565b600080600080606085870312156116ce57600080fd5b600085013567ffffffffffffffff8111156116e857600080fd5b6116f487828801611532565b945094505060206117078782880161157c565b92505060406117188782880161151d565b91505092959194509250565b60006117308383611764565b60208301905092915050565b60006117488383611993565b905092915050565b600061175c83836119cc565b905092915050565b61176d81611cf8565b82525050565b61177c81611cf8565b82525050565b600061178d82611c14565b6117978185611c67565b93506117a283611bcf565b8060005b838110156117d35781516117ba8882611724565b97506117c583611c40565b9250506001810190506117a6565b5085935050505092915050565b60006117eb82611c1f565b6117f58185611c78565b93508360208202850161180785611bdf565b8060005b858110156118435784840389528151611824858261173c565b945061182f83611c4d565b925060208a0199505060018101905061180b565b50829750879550505050505092915050565b600061186082611c2a565b61186a8185611c89565b93508360208202850161187c85611bef565b8060005b858110156118b857848403895281516118998582611750565b94506118a483611c5a565b925060208a01995050600181019050611880565b50829750879550505050505092915050565b60006118d68385611c9a565b93506118e3838584611d37565b82840190509392505050565b600081546118fc81611d79565b6119068186611c9a565b94506001821660008114611921576001811461193257611965565b60ff19831686528186019350611965565b61193b85611bff565b60005b8381101561195d5781548189015260018201915060208101905061193e565b838801955050505b50505092915050565b600061197a8385611cb6565b9350611987838584611d37565b82840190509392505050565b600061199e82611c35565b6119a88185611ca5565b93506119b8818560208601611d46565b6119c181611e33565b840191505092915050565b600060a08301600083015184820360008601526119e98282611993565b91505060208301518482036020860152611a038282611993565b91505060408301518482036040860152611a1d8282611993565b9150506060830151611a326060860182611ad4565b506080830151611a456080860182611764565b508091505092915050565b600060a0830160008301518482036000860152611a6d8282611993565b91505060208301518482036020860152611a878282611993565b91505060408301518482036040860152611aa18282611993565b9150506060830151611ab66060860182611ad4565b506080830151611ac96080860182611764565b508091505092915050565b611add81611d2a565b82525050565b6000611af08284866118ca565b91508190509392505050565b6000611b0882846118ef565b915081905092915050565b6000611b2082848661196e565b91508190509392505050565b6000602082019050611b416000830184611773565b92915050565b60006020820190508181036000830152611b618184611782565b905092915050565b60006020820190508181036000830152611b8381846117e0565b905092915050565b60006020820190508181036000830152611ba58184611855565b905092915050565b60006020820190508181036000830152611bc78184611a50565b905092915050565b6000819050602082019050919050565b6000819050602082019050919050565b6000819050602082019050919050565b60008190508160005260206000209050919050565b600081519050919050565b600081519050919050565b600081519050919050565b600081519050919050565b6000602082019050919050565b6000602082019050919050565b6000602082019050919050565b600082825260208201905092915050565b600082825260208201905092915050565b600082825260208201905092915050565b600081905092915050565b600082825260208201905092915050565b600081905092915050565b6000611ccc82611d2a565b9150611cd783611d2a565b92508260ff03821115611ced57611cec611dd5565b5b828201905092915050565b6000611d0382611d0a565b9050919050565b600073ffffffffffffffffffffffffffffffffffffffff82169050919050565b600060ff82169050919050565b82818337600083830152505050565b60005b83811015611d64578082015181840152602081019050611d49565b83811115611d73576000848401525b50505050565b60006002820490506001821680611d9157607f821691505b60208210811415611da557611da4611e04565b5b50919050565b6000611db682611d2a565b915060ff821415611dca57611dc9611dd5565b5b600182019050919050565b7f4e487b7100000000000000000000000000000000000000000000000000000000600052601160045260246000fd5b7f4e487b7100000000000000000000000000000000000000000000000000000000600052602260045260246000fd5b6000601f19601f8301169050919050565b611e4d81611cf8565b8114611e5857600080fd5b50565b611e6481611d2a565b8114611e6f57600080fd5b5056fea2646970667358221220240dd09af87d5dc4cced333e208d3406f41448e00ead18396895ff392fa7fef764736f6c63430008000033608060405234801561001057600080fd5b50604051610f98380380610f98833981810160405281019061003291906100ce565b806000806101000a81548173ffffffffffffffffffffffffffffffffffffffff021916908373ffffffffffffffffffffffffffffffffffffffff16021790555080600160006101000a81548173ffffffffffffffffffffffffffffffffffffffff021916908373ffffffffffffffffffffffffffffffffffffffff16021790555050610140565b6000815190506100c881610129565b92915050565b6000602082840312156100e057600080fd5b60006100ee848285016100b9565b91505092915050565b600061010282610109565b9050919050565b600073ffffffffffffffffffffffffffffffffffffffff82169050919050565b610132816100f7565b811461013d57600080fd5b50565b610e498061014f6000396000f3fe608060405234801561001057600080fd5b50600436106100415760003560e01c80633645b824146100465780634afcc5221461006257806368ebea1b1461007e575b600080fd5b610060600480360381019061005b9190610929565b6100ae565b005b61007c600480360381019061007791906109cd565b6101a3565b005b61009860048036038101906100939190610900565b6103a0565b6040516100a59190610c61565b60405180910390f35b600115156100ba6106e1565b1515146100fc576040517f08c379a00000000000000000000000000000000000000000000000000000000081526004016100f390610c41565b60405180910390fd5b6000339050600160009054906101000a900473ffffffffffffffffffffffffffffffffffffffff1673ffffffffffffffffffffffffffffffffffffffff1663bf91fc71888888888888886040518863ffffffff1660e01b81526004016101689796959493929190610be1565b600060405180830381600087803b15801561018257600080fd5b505af1158015610196573d6000803e3d6000fd5b5050505050505050505050565b6101ab6107c0565b87878080601f016020809104026020016040519081016040528093929190818152602001838380828437600081840152601f19601f82011690508083019250505050505050816000018190525085858080601f016020809104026020016040519081016040528093929190818152602001838380828437600081840152601f19601f82011690508083019250505050505050816020018190525083838080601f016020809104026020016040519081016040528093929190818152602001838380828437600081840152601f19601f82011690508083019250505050505050816040018190525081816060019073ffffffffffffffffffffffffffffffffffffffff16908173ffffffffffffffffffffffffffffffffffffffff1681525050600281908060018154018082558091505060019003906000526020600020906004020160009091909190915060008201518160000190805190602001906103129291906107fe565b50602082015181600101908051906020019061032f9291906107fe565b50604082015181600201908051906020019061034c9291906107fe565b5060608201518160030160006101000a81548173ffffffffffffffffffffffffffffffffffffffff021916908373ffffffffffffffffffffffffffffffffffffffff16021790555050505050505050505050565b6103a86107c0565b60005b6002805490508160ff1610156106da578273ffffffffffffffffffffffffffffffffffffffff1660028260ff168154811061040f577f4e487b7100000000000000000000000000000000000000000000000000000000600052603260045260246000fd5b906000526020600020906004020160030160009054906101000a900473ffffffffffffffffffffffffffffffffffffffff1673ffffffffffffffffffffffffffffffffffffffff1614156106c75760028160ff168154811061049a577f4e487b7100000000000000000000000000000000000000000000000000000000600052603260045260246000fd5b90600052602060002090600402016040518060800160405290816000820180546104c390610d31565b80601f01602080910402602001604051908101604052809291908181526020018280546104ef90610d31565b801561053c5780601f106105115761010080835404028352916020019161053c565b820191906000526020600020905b81548152906001019060200180831161051f57829003601f168201915b5050505050815260200160018201805461055590610d31565b80601f016020809104026020016040519081016040528092919081815260200182805461058190610d31565b80156105ce5780601f106105a3576101008083540402835291602001916105ce565b820191906000526020600020905b8154815290600101906020018083116105b157829003601f168201915b505050505081526020016002820180546105e790610d31565b80601f016020809104026020016040519081016040528092919081815260200182805461061390610d31565b80156106605780601f1061063557610100808354040283529160200191610660565b820191906000526020600020905b81548152906001019060200180831161064357829003601f168201915b505050505081526020016003820160009054906101000a900473ffffffffffffffffffffffffffffffffffffffff1673ffffffffffffffffffffffffffffffffffffffff1673ffffffffffffffffffffffffffffffffffffffff16815250509150506106dc565b80806106d290610d63565b9150506103ab565b505b919050565b60008033905060005b6002805490508160ff1610156107ba578173ffffffffffffffffffffffffffffffffffffffff1660028260ff168154811061074e577f4e487b7100000000000000000000000000000000000000000000000000000000600052603260045260246000fd5b906000526020600020906004020160030160009054906101000a900473ffffffffffffffffffffffffffffffffffffffff1673ffffffffffffffffffffffffffffffffffffffff1614156107a7576001925050506107bd565b80806107b290610d63565b9150506106ea565b50505b90565b6040518060800160405280606081526020016060815260200160608152602001600073ffffffffffffffffffffffffffffffffffffffff1681525090565b82805461080a90610d31565b90600052602060002090601f01602090048101928261082c5760008555610873565b82601f1061084557805160ff1916838001178555610873565b82800160010185558215610873579182015b82811115610872578251825591602001919060010190610857565b5b5090506108809190610884565b5090565b5b8082111561089d576000816000905550600101610885565b5090565b6000813590506108b081610dfc565b92915050565b60008083601f8401126108c857600080fd5b8235905067ffffffffffffffff8111156108e157600080fd5b6020830191508360018202830111156108f957600080fd5b9250929050565b60006020828403121561091257600080fd5b6000610920848285016108a1565b91505092915050565b6000806000806000806060878903121561094257600080fd5b600087013567ffffffffffffffff81111561095c57600080fd5b61096889828a016108b6565b9650965050602087013567ffffffffffffffff81111561098757600080fd5b61099389828a016108b6565b9450945050604087013567ffffffffffffffff8111156109b257600080fd5b6109be89828a016108b6565b92509250509295509295509295565b60008060008060008060006080888a0312156109e857600080fd5b600088013567ffffffffffffffff811115610a0257600080fd5b610a0e8a828b016108b6565b9750975050602088013567ffffffffffffffff811115610a2d57600080fd5b610a398a828b016108b6565b9550955050604088013567ffffffffffffffff811115610a5857600080fd5b610a648a828b016108b6565b93509350506060610a778a828b016108a1565b91505092959891949750929550565b610a8f81610cb0565b82525050565b610a9e81610cb0565b82525050565b6000610ab08385610c9f565b9350610abd838584610cef565b610ac683610deb565b840190509392505050565b6000610adc82610c83565b610ae68185610c8e565b9350610af6818560208601610cfe565b610aff81610deb565b840191505092915050565b6000610b17602b83610c9f565b91507f796f75277265206e6f7420726567697374657221206b696e646c79207265676960008301527f737465722066697273742e0000000000000000000000000000000000000000006020830152604082019050919050565b60006080830160008301518482036000860152610b8d8282610ad1565b91505060208301518482036020860152610ba78282610ad1565b91505060408301518482036040860152610bc18282610ad1565b9150506060830151610bd66060860182610a86565b508091505092915050565b60006080820190508181036000830152610bfc81898b610aa4565b90508181036020830152610c11818789610aa4565b90508181036040830152610c26818587610aa4565b9050610c356060830184610a95565b98975050505050505050565b60006020820190508181036000830152610c5a81610b0a565b9050919050565b60006020820190508181036000830152610c7b8184610b70565b905092915050565b600081519050919050565b600082825260208201905092915050565b600082825260208201905092915050565b6000610cbb82610cc2565b9050919050565b600073ffffffffffffffffffffffffffffffffffffffff82169050919050565b600060ff82169050919050565b82818337600083830152505050565b60005b83811015610d1c578082015181840152602081019050610d01565b83811115610d2b576000848401525b50505050565b60006002820490506001821680610d4957607f821691505b60208210811415610d5d57610d5c610dbc565b5b50919050565b6000610d6e82610ce2565b915060ff821415610d8257610d81610d8d565b5b600182019050919050565b7f4e487b7100000000000000000000000000000000000000000000000000000000600052601160045260246000fd5b7f4e487b7100000000000000000000000000000000000000000000000000000000600052602260045260246000fd5b6000601f19601f8301169050919050565b610e0581610cb0565b8114610e1057600080fd5b5056fea264697066735822122046c58bd9b0bea56f249b4002de6f2f90f25bab8a46855849f874093baefe136764736f6c6343000800003360806040523480156200001157600080fd5b50604051620013a0380380620013a08339818101604052810190620000379190620000d6565b806000806101000a81548173ffffffffffffffffffffffffffffffffffffffff021916908373ffffffffffffffffffffffffffffffffffffffff16021790555080600160006101000a81548173ffffffffffffffffffffffffffffffffffffffff021916908373ffffffffffffffffffffffffffffffffffffffff1602179055505062000150565b600081519050620000d08162000136565b92915050565b600060208284031215620000e957600080fd5b6000620000f984828501620000bf565b91505092915050565b60006200010f8262000116565b9050919050565b600073ffffffffffffffffffffffffffffffffffffffff82169050919050565b620001418162000102565b81146200014d57600080fd5b50565b61124080620001606000396000f3fe608060405234801561001057600080fd5b50600436106100575760003560e01c80633e0dfbdf1461005c5780633f8b850a1461008c5780638e5290d7146100a8578063b2f5a54c146100c6578063ea738550146100e4575b600080fd5b61007660048036038101906100719190610bc4565b610100565b6040516100839190610ffc565b60405180910390f35b6100a660048036038101906100a19190610bed565b61043b565b005b6100b0610638565b6040516100bd9190610f81565b60405180910390f35b6100ce610717565b6040516100db9190610f5f565b60405180910390f35b6100fe60048036038101906100f99190610ca6565b610982565b005b610108610a6f565b60005b6002805490508160ff161015610435578273ffffffffffffffffffffffffffffffffffffffff1660028260ff168154811061016f577f4e487b7100000000000000000000000000000000000000000000000000000000600052603260045260246000fd5b906000526020600020906004020160030160009054906101000a900473ffffffffffffffffffffffffffffffffffffffff1673ffffffffffffffffffffffffffffffffffffffff1614156104225760028160ff16815481106101fa577f4e487b7100000000000000000000000000000000000000000000000000000000600052603260045260246000fd5b906000526020600020906004020160405180608001604052908160008201805461022390611111565b80601f016020809104026020016040519081016040528092919081815260200182805461024f90611111565b801561029c5780601f106102715761010080835404028352916020019161029c565b820191906000526020600020905b81548152906001019060200180831161027f57829003601f168201915b505050505081526020016001820180546102b590611111565b80601f01602080910402602001604051908101604052809291908181526020018280546102e190611111565b801561032e5780601f106103035761010080835404028352916020019161032e565b820191906000526020600020905b81548152906001019060200180831161031157829003601f168201915b5050505050815260200160028201805461034790611111565b80601f016020809104026020016040519081016040528092919081815260200182805461037390611111565b80156103c05780601f10610395576101008083540402835291602001916103c0565b820191906000526020600020905b8154815290600101906020018083116103a357829003601f168201915b505050505081526020016003820160009054906101000a900473ffffffffffffffffffffffffffffffffffffffff1673ffffffffffffffffffffffffffffffffffffffff1673ffffffffffffffffffffffffffffffffffffffff168152505091505b808061042d90611143565b91505061010b565b50919050565b610443610a6f565b87878080601f016020809104026020016040519081016040528093929190818152602001838380828437600081840152601f19601f82011690508083019250505050505050816000018190525085858080601f016020809104026020016040519081016040528093929190818152602001838380828437600081840152601f19601f82011690508083019250505050505050816020018190525083838080601f016020809104026020016040519081016040528093929190818152602001838380828437600081840152601f19601f82011690508083019250505050505050816040018190525081816060019073ffffffffffffffffffffffffffffffffffffffff16908173ffffffffffffffffffffffffffffffffffffffff1681525050600281908060018154018082558091505060019003906000526020600020906004020160009091909190915060008201518160000190805190602001906105aa929190610aad565b5060208201518160010190805190602001906105c7929190610aad565b5060408201518160020190805190602001906105e4929190610aad565b5060608201518160030160006101000a81548173ffffffffffffffffffffffffffffffffffffffff021916908373ffffffffffffffffffffffffffffffffffffffff16021790555050505050505050505050565b60008033905060005b6002805490508160ff161015610711578173ffffffffffffffffffffffffffffffffffffffff1660028260ff16815481106106a5577f4e487b7100000000000000000000000000000000000000000000000000000000600052603260045260246000fd5b906000526020600020906004020160030160009054906101000a900473ffffffffffffffffffffffffffffffffffffffff1673ffffffffffffffffffffffffffffffffffffffff1614156106fe57600192505050610714565b808061070990611143565b915050610641565b50505b90565b60606002805480602002602001604051908101604052809291908181526020016000905b82821015610979578382906000526020600020906004020160405180608001604052908160008201805461076e90611111565b80601f016020809104026020016040519081016040528092919081815260200182805461079a90611111565b80156107e75780601f106107bc576101008083540402835291602001916107e7565b820191906000526020600020905b8154815290600101906020018083116107ca57829003601f168201915b5050505050815260200160018201805461080090611111565b80601f016020809104026020016040519081016040528092919081815260200182805461082c90611111565b80156108795780601f1061084e57610100808354040283529160200191610879565b820191906000526020600020905b81548152906001019060200180831161085c57829003601f168201915b5050505050815260200160028201805461089290611111565b80601f01602080910402602001604051908101604052809291908181526020018280546108be90611111565b801561090b5780601f106108e05761010080835404028352916020019161090b565b820191906000526020600020905b8154815290600101906020018083116108ee57829003601f168201915b505050505081526020016003820160009054906101000a900473ffffffffffffffffffffffffffffffffffffffff1673ffffffffffffffffffffffffffffffffffffffff1673ffffffffffffffffffffffffffffffffffffffff16815250508152602001906001019061073b565b50505050905090565b6001151561098e610638565b1515146109d0576040517f08c379a00000000000000000000000000000000000000000000000000000000081526004016109c790610fdc565b60405180910390fd5b6000819050600160009054906101000a900473ffffffffffffffffffffffffffffffffffffffff1673ffffffffffffffffffffffffffffffffffffffff1663a5647c9e868686856040518563ffffffff1660e01b8152600401610a369493929190610f9c565b600060405180830381600087803b158015610a5057600080fd5b505af1158015610a64573d6000803e3d6000fd5b505050505050505050565b6040518060800160405280606081526020016060815260200160608152602001600073ffffffffffffffffffffffffffffffffffffffff1681525090565b828054610ab990611111565b90600052602060002090601f016020900481019282610adb5760008555610b22565b82601f10610af457805160ff1916838001178555610b22565b82800160010185558215610b22579182015b82811115610b21578251825591602001919060010190610b06565b5b509050610b2f9190610b33565b5090565b5b80821115610b4c576000816000905550600101610b34565b5090565b600081359050610b5f816111dc565b92915050565b60008083601f840112610b7757600080fd5b8235905067ffffffffffffffff811115610b9057600080fd5b602083019150836001820283011115610ba857600080fd5b9250929050565b600081359050610bbe816111f3565b92915050565b600060208284031215610bd657600080fd5b6000610be484828501610b50565b91505092915050565b60008060008060008060006080888a031215610c0857600080fd5b600088013567ffffffffffffffff811115610c2257600080fd5b610c2e8a828b01610b65565b9750975050602088013567ffffffffffffffff811115610c4d57600080fd5b610c598a828b01610b65565b9550955050604088013567ffffffffffffffff811115610c7857600080fd5b610c848a828b01610b65565b93509350506060610c978a828b01610b50565b91505092959891949750929550565b60008060008060608587031215610cbc57600080fd5b600085013567ffffffffffffffff811115610cd657600080fd5b610ce287828801610b65565b94509450506020610cf587828801610baf565b9250506040610d0687828801610b50565b91505092959194509250565b6000610d1e8383610e6e565b905092915050565b610d2f81611084565b82525050565b610d3e81611084565b82525050565b6000610d4f8261102e565b610d598185611051565b935083602082028501610d6b8561101e565b8060005b85811015610da75784840389528151610d888582610d12565b9450610d9383611044565b925060208a01995050600181019050610d6f565b50829750879550505050505092915050565b610dc281611096565b82525050565b6000610dd48385611073565b9350610de18385846110cf565b610dea836111cb565b840190509392505050565b6000610e0082611039565b610e0a8185611062565b9350610e1a8185602086016110de565b610e23816111cb565b840191505092915050565b6000610e3b602083611073565b91507f796f75277265206e6f7420726567697374657220617320696e766573746f722e6000830152602082019050919050565b60006080830160008301518482036000860152610e8b8282610df5565b91505060208301518482036020860152610ea58282610df5565b91505060408301518482036040860152610ebf8282610df5565b9150506060830151610ed46060860182610d26565b508091505092915050565b60006080830160008301518482036000860152610efc8282610df5565b91505060208301518482036020860152610f168282610df5565b91505060408301518482036040860152610f308282610df5565b9150506060830151610f456060860182610d26565b508091505092915050565b610f59816110c2565b82525050565b60006020820190508181036000830152610f798184610d44565b905092915050565b6000602082019050610f966000830184610db9565b92915050565b60006060820190508181036000830152610fb7818688610dc8565b9050610fc66020830185610f50565b610fd36040830184610d35565b95945050505050565b60006020820190508181036000830152610ff581610e2e565b9050919050565b600060208201905081810360008301526110168184610edf565b905092915050565b6000819050602082019050919050565b600081519050919050565b600081519050919050565b6000602082019050919050565b600082825260208201905092915050565b600082825260208201905092915050565b600082825260208201905092915050565b600061108f826110a2565b9050919050565b60008115159050919050565b600073ffffffffffffffffffffffffffffffffffffffff82169050919050565b600060ff82169050919050565b82818337600083830152505050565b60005b838110156110fc5780820151818401526020810190506110e1565b8381111561110b576000848401525b50505050565b6000600282049050600182168061112957607f821691505b6020821081141561113d5761113c61119c565b5b50919050565b600061114e826110c2565b915060ff8214156111625761116161116d565b5b600182019050919050565b7f4e487b7100000000000000000000000000000000000000000000000000000000600052601160045260246000fd5b7f4e487b7100000000000000000000000000000000000000000000000000000000600052602260045260246000fd5b6000601f19601f8301169050919050565b6111e581611084565b81146111f057600080fd5b50565b6111fc816110c2565b811461120757600080fd5b5056fea2646970667358221220914f58c1ffd7451bea4f59fe2e9f4c918a66096630e059bce9b3f286c98af5f364736f6c63430008000033",
  "immutableReferences": {},
  "source": "// SPDX-License-Identifier: MIT\r\n// solium-disable linebreak-style\r\npragma solidity >= 0.4.22 < 0.9.0;\r\n\r\nimport \"./Ideator.sol\";\r\nimport \"./Investor.sol\";\r\n\r\ncontract ContractOwner {\r\n\r\n    Ideator ideatorObj;\r\n    Investor investorObj;   \r\n\r\n    struct idea_info {\r\n        string code;\r\n        string title;\r\n        string description;\r\n        uint8 amount;\r\n        address ideaOwner;\r\n    }\r\n\r\n    idea_info [] ideas_arr; // contains multiple ideas\r\n    mapping(string => address[]) idea_investors;\r\n    mapping(address => string[]) investors_idea; \r\n\r\n    constructor() {\r\n        ideatorObj = new Ideator( address(this) );\r\n        investorObj = new Investor( address(this) );\r\n    }\r\n\r\n    function saveIdea(string calldata _code, string calldata _title, string calldata _description, address _account) public {\r\n        idea_info memory idea;\r\n        idea.code = _code;\r\n        idea.title = _title;\r\n        idea.description = _description;\r\n        idea.ideaOwner = _account;\r\n        ideas_arr.push(idea);\r\n    }\r\n\r\n    function getIdeasByIdeatorAddress(address _account) public view returns(idea_info memory tempIdea) {\r\n         for(uint8 i=0; i<ideas_arr.length; i++) {\r\n             if( ideas_arr[i].ideaOwner == _account ) {\r\n                 return ideas_arr[i];\r\n             }\r\n         }\r\n    }\r\n\r\n    function getIdeas() public view returns(idea_info [] memory) {\r\n        return ideas_arr;\r\n    }\r\n\r\n    function getIdeaByCode(string calldata _code) public view returns(idea_info memory tempIdea) {\r\n        for(uint8 i=0; i<ideas_arr.length; i++) {\r\n            if( keccak256(bytes(ideas_arr[i].code)) == keccak256(bytes(_code))) {\r\n                return ideas_arr[i];\r\n            }\r\n        }\r\n    }\r\n\r\n    // call from investor contract\r\n    function receiveIdeaDonations(string calldata _code, uint8 _amount, address _account) public {\r\n        for(uint8 i=0; i<ideas_arr.length; i++) {\r\n            if(keccak256(bytes(ideas_arr[i].code)) == keccak256(bytes(_code))) {\r\n                ideas_arr[i].amount = ideas_arr[i].amount + _amount;\r\n            }\r\n        }\r\n        idea_investors[_code].push(_account);\r\n        investors_idea[_account].push(_code);\r\n    }\r\n    \r\n    // Get All Idea Codes\r\n    function getIdeaCodes() public view returns(string [] memory codes) {\r\n        codes = new string[](ideas_arr.length);\r\n        for(uint8 i=0; i<ideas_arr.length; i++) {\r\n            codes[i] = ideas_arr[i].code;\r\n        }\r\n        return codes;\r\n    }\r\n\r\n    function getIdeaOnInvestor(address _account) public view returns(string [] memory ideaCodes) {\r\n        return investors_idea[_account];\r\n    }\r\n\r\n    function getInvestorsOnIdeaCode(string calldata _code) public view returns(address[] memory ideaInvestors) {\r\n        return idea_investors[_code];\r\n    }\r\n\r\n    function getIdeatorContractAddress() public view returns(address ideatorAddr) {\r\n        ideatorAddr = address(ideatorObj);\r\n    }\r\n\r\n    function getInvestorContractAddress() public view returns(address investorAddr) {\r\n        investorAddr = address(investorObj);\r\n    }\r\n\r\n}",
  "sourcePath": "E:\\3 - Al Nafi\\Blockchain\\Labs\\side_projects\\crowdfunding_dapp\\contracts\\ContractOwner.sol",
  "compiler": {
    "name": "solc",
    "version": "0.8.0+commit.c7dfd78e.Emscripten.clang"
  },
  "schemaVersion": "3.4.3",
  "updatedAt": "2022-01-12T15:13:10.707Z",
  "networkType": "ethereum",
  "devdoc": {
    "kind": "dev",
    "methods": {},
    "version": 1
  },
  "userdoc": {
    "kind": "user",
    "methods": {},
    "version": 1
  }
}