{
  "contractName": "ContractOwner",
  "abi": [
    {
      "inputs": [],
      "stateMutability": "nonpayable",
      "type": "constructor"
    },
    {
      "inputs": [
        {
          "internalType": "string",
          "name": "_code",
          "type": "string"
        },
        {
          "internalType": "string",
          "name": "_title",
          "type": "string"
        },
        {
          "internalType": "string",
          "name": "_description",
          "type": "string"
        },
        {
          "internalType": "address",
          "name": "_account",
          "type": "address"
        }
      ],
      "name": "saveIdea",
      "outputs": [],
      "stateMutability": "nonpayable",
      "type": "function"
    },
    {
      "inputs": [
        {
          "internalType": "address",
          "name": "_account",
          "type": "address"
        }
      ],
      "name": "getIdeasByIdeatorAddress",
      "outputs": [
        {
          "components": [
            {
              "internalType": "string",
              "name": "code",
              "type": "string"
            },
            {
              "internalType": "string",
              "name": "title",
              "type": "string"
            },
            {
              "internalType": "string",
              "name": "description",
              "type": "string"
            },
            {
              "internalType": "address",
              "name": "ideaOwner",
              "type": "address"
            },
            {
              "internalType": "address[]",
              "name": "investors",
              "type": "address[]"
            },
            {
              "internalType": "uint256",
              "name": "amount",
              "type": "uint256"
            }
          ],
          "internalType": "struct ContractOwner.idea_info",
          "name": "tempIdea",
          "type": "tuple"
        }
      ],
      "stateMutability": "view",
      "type": "function",
      "constant": true
    },
    {
      "inputs": [],
      "name": "getIdeas",
      "outputs": [
        {
          "components": [
            {
              "internalType": "string",
              "name": "code",
              "type": "string"
            },
            {
              "internalType": "string",
              "name": "title",
              "type": "string"
            },
            {
              "internalType": "string",
              "name": "description",
              "type": "string"
            },
            {
              "internalType": "address",
              "name": "ideaOwner",
              "type": "address"
            },
            {
              "internalType": "address[]",
              "name": "investors",
              "type": "address[]"
            },
            {
              "internalType": "uint256",
              "name": "amount",
              "type": "uint256"
            }
          ],
          "internalType": "struct ContractOwner.idea_info[]",
          "name": "",
          "type": "tuple[]"
        }
      ],
      "stateMutability": "view",
      "type": "function",
      "constant": true
    },
    {
      "inputs": [
        {
          "internalType": "string",
          "name": "_code",
          "type": "string"
        }
      ],
      "name": "getIdeaByCode",
      "outputs": [
        {
          "components": [
            {
              "internalType": "string",
              "name": "code",
              "type": "string"
            },
            {
              "internalType": "string",
              "name": "title",
              "type": "string"
            },
            {
              "internalType": "string",
              "name": "description",
              "type": "string"
            },
            {
              "internalType": "address",
              "name": "ideaOwner",
              "type": "address"
            },
            {
              "internalType": "address[]",
              "name": "investors",
              "type": "address[]"
            },
            {
              "internalType": "uint256",
              "name": "amount",
              "type": "uint256"
            }
          ],
          "internalType": "struct ContractOwner.idea_info",
          "name": "tempIdea",
          "type": "tuple"
        }
      ],
      "stateMutability": "view",
      "type": "function",
      "constant": true
    },
    {
      "inputs": [
        {
          "internalType": "string",
          "name": "_code",
          "type": "string"
        },
        {
          "internalType": "uint256",
          "name": "_amount",
          "type": "uint256"
        },
        {
          "internalType": "address",
          "name": "_account",
          "type": "address"
        }
      ],
      "name": "receiveIdeaDonations",
      "outputs": [],
      "stateMutability": "nonpayable",
      "type": "function"
    },
    {
      "inputs": [],
      "name": "getIdeaCodes",
      "outputs": [
        {
          "internalType": "string[]",
          "name": "codes",
          "type": "string[]"
        }
      ],
      "stateMutability": "view",
      "type": "function",
      "constant": true
    },
    {
      "inputs": [
        {
          "internalType": "address",
          "name": "_account",
          "type": "address"
        }
      ],
      "name": "getIdeaOnInvestor",
      "outputs": [
        {
          "components": [
            {
              "internalType": "string",
              "name": "code",
              "type": "string"
            },
            {
              "internalType": "string",
              "name": "title",
              "type": "string"
            },
            {
              "internalType": "string",
              "name": "description",
              "type": "string"
            },
            {
              "internalType": "address",
              "name": "ideaOwner",
              "type": "address"
            },
            {
              "internalType": "address[]",
              "name": "investors",
              "type": "address[]"
            },
            {
              "internalType": "uint256",
              "name": "amount",
              "type": "uint256"
            }
          ],
          "internalType": "struct ContractOwner.idea_info",
          "name": "investorIdea",
          "type": "tuple"
        }
      ],
      "stateMutability": "view",
      "type": "function",
      "constant": true
    },
    {
      "inputs": [],
      "name": "getIdeatorContractAddress",
      "outputs": [
        {
          "internalType": "address",
          "name": "ideatorAddr",
          "type": "address"
        }
      ],
      "stateMutability": "view",
      "type": "function",
      "constant": true
    },
    {
      "inputs": [],
      "name": "getInvestorContractAddress",
      "outputs": [
        {
          "internalType": "address",
          "name": "investorAddr",
          "type": "address"
        }
      ],
      "stateMutability": "view",
      "type": "function",
      "constant": true
    }
  ],
  "bytecode": "0x60806040523480156200001157600080fd5b5030604051620000219062000109565b6200002d919062000136565b604051809103906000f0801580156200004a573d6000803e3d6000fd5b506000806101000a81548173ffffffffffffffffffffffffffffffffffffffff021916908373ffffffffffffffffffffffffffffffffffffffff16021790555030604051620000999062000117565b620000a5919062000136565b604051809103906000f080158015620000c2573d6000803e3d6000fd5b50600160006101000a81548173ffffffffffffffffffffffffffffffffffffffff021916908373ffffffffffffffffffffffffffffffffffffffff16021790555062000187565b610f98806200239683390190565b6113aa806200332e83390190565b620001308162000153565b82525050565b60006020820190506200014d600083018462000125565b92915050565b6000620001608262000167565b9050919050565b600073ffffffffffffffffffffffffffffffffffffffff82169050919050565b6121ff80620001976000396000f3fe608060405234801561001057600080fd5b50600436106100935760003560e01c80638a875e7f116100665780638a875e7f14610134578063b9a5e91f14610152578063bf91fc7114610182578063edd8ade11461019e578063fb8aa43d146101bc57610093565b80630448584114610098578063111a2702146100b65780631fcf5c8e146100e6578063330c08dd14610104575b600080fd5b6100a06101d8565b6040516100ad9190611ec4565b60405180910390f35b6100d060048036038101906100cb919061191f565b6104db565b6040516100dd9190611ee6565b60405180910390f35b6100ee610894565b6040516100fb9190611ea2565b60405180910390f35b61011e600480360381019061011991906118f6565b610a59565b60405161012b9190611ee6565b60405180910390f35b61013c610e32565b6040516101499190611e87565b60405180910390f35b61016c600480360381019061016791906118f6565b610e5b565b6040516101799190611ee6565b60405180910390f35b61019c60048036038101906101979190611964565b6112ed565b005b6101a661151c565b6040516101b39190611e87565b60405180910390f35b6101d660048036038101906101d19190611a1d565b611546565b005b60606002805480602002602001604051908101604052809291908181526020016000905b828210156104d257838290600052602060002090600602016040518060c001604052908160008201805461022f906120d0565b80601f016020809104026020016040519081016040528092919081815260200182805461025b906120d0565b80156102a85780601f1061027d576101008083540402835291602001916102a8565b820191906000526020600020905b81548152906001019060200180831161028b57829003601f168201915b505050505081526020016001820180546102c1906120d0565b80601f01602080910402602001604051908101604052809291908181526020018280546102ed906120d0565b801561033a5780601f1061030f5761010080835404028352916020019161033a565b820191906000526020600020905b81548152906001019060200180831161031d57829003601f168201915b50505050508152602001600282018054610353906120d0565b80601f016020809104026020016040519081016040528092919081815260200182805461037f906120d0565b80156103cc5780601f106103a1576101008083540402835291602001916103cc565b820191906000526020600020905b8154815290600101906020018083116103af57829003601f168201915b505050505081526020016003820160009054906101000a900473ffffffffffffffffffffffffffffffffffffffff1673ffffffffffffffffffffffffffffffffffffffff1673ffffffffffffffffffffffffffffffffffffffff168152602001600482018054806020026020016040519081016040528092919081815260200182805480156104b057602002820191906000526020600020905b8160009054906101000a900473ffffffffffffffffffffffffffffffffffffffff1673ffffffffffffffffffffffffffffffffffffffff1681526020019060010190808311610466575b50505050508152602001600582015481525050815260200190600101906101fc565b50505050905090565b6104e3611709565b60005b6002805490508160ff16101561088c578383604051610506929190611e57565b604051809103902060028260ff168154811061054b577f4e487b7100000000000000000000000000000000000000000000000000000000600052603260045260246000fd5b90600052602060002090600602016000016040516105699190611e70565b604051809103902014156108795760028160ff16815481106105b4577f4e487b7100000000000000000000000000000000000000000000000000000000600052603260045260246000fd5b90600052602060002090600602016040518060c00160405290816000820180546105dd906120d0565b80601f0160208091040260200160405190810160405280929190818152602001828054610609906120d0565b80156106565780601f1061062b57610100808354040283529160200191610656565b820191906000526020600020905b81548152906001019060200180831161063957829003601f168201915b5050505050815260200160018201805461066f906120d0565b80601f016020809104026020016040519081016040528092919081815260200182805461069b906120d0565b80156106e85780601f106106bd576101008083540402835291602001916106e8565b820191906000526020600020905b8154815290600101906020018083116106cb57829003601f168201915b50505050508152602001600282018054610701906120d0565b80601f016020809104026020016040519081016040528092919081815260200182805461072d906120d0565b801561077a5780601f1061074f5761010080835404028352916020019161077a565b820191906000526020600020905b81548152906001019060200180831161075d57829003601f168201915b505050505081526020016003820160009054906101000a900473ffffffffffffffffffffffffffffffffffffffff1673ffffffffffffffffffffffffffffffffffffffff1673ffffffffffffffffffffffffffffffffffffffff1681526020016004820180548060200260200160405190810160405280929190818152602001828054801561085e57602002820191906000526020600020905b8160009054906101000a900473ffffffffffffffffffffffffffffffffffffffff1673ffffffffffffffffffffffffffffffffffffffff1681526020019060010190808311610814575b5050505050815260200160058201548152505091505061088e565b808061088490612102565b9150506104e6565b505b92915050565b606060028054905067ffffffffffffffff8111156108db577f4e487b7100000000000000000000000000000000000000000000000000000000600052604160045260246000fd5b60405190808252806020026020018201604052801561090e57816020015b60608152602001906001900390816108f95790505b50905060005b6002805490508160ff161015610a555760028160ff1681548110610961577f4e487b7100000000000000000000000000000000000000000000000000000000600052603260045260246000fd5b9060005260206000209060060201600001805461097d906120d0565b80601f01602080910402602001604051908101604052809291908181526020018280546109a9906120d0565b80156109f65780601f106109cb576101008083540402835291602001916109f6565b820191906000526020600020905b8154815290600101906020018083116109d957829003601f168201915b5050505050828260ff1681518110610a37577f4e487b7100000000000000000000000000000000000000000000000000000000600052603260045260246000fd5b60200260200101819052508080610a4d90612102565b915050610914565b5090565b610a61611709565b60005b6002805490508160ff161015610e2b578273ffffffffffffffffffffffffffffffffffffffff1660028260ff1681548110610ac8577f4e487b7100000000000000000000000000000000000000000000000000000000600052603260045260246000fd5b906000526020600020906006020160030160009054906101000a900473ffffffffffffffffffffffffffffffffffffffff1673ffffffffffffffffffffffffffffffffffffffff161415610e185760028160ff1681548110610b53577f4e487b7100000000000000000000000000000000000000000000000000000000600052603260045260246000fd5b90600052602060002090600602016040518060c0016040529081600082018054610b7c906120d0565b80601f0160208091040260200160405190810160405280929190818152602001828054610ba8906120d0565b8015610bf55780601f10610bca57610100808354040283529160200191610bf5565b820191906000526020600020905b815481529060010190602001808311610bd857829003601f168201915b50505050508152602001600182018054610c0e906120d0565b80601f0160208091040260200160405190810160405280929190818152602001828054610c3a906120d0565b8015610c875780601f10610c5c57610100808354040283529160200191610c87565b820191906000526020600020905b815481529060010190602001808311610c6a57829003601f168201915b50505050508152602001600282018054610ca0906120d0565b80601f0160208091040260200160405190810160405280929190818152602001828054610ccc906120d0565b8015610d195780601f10610cee57610100808354040283529160200191610d19565b820191906000526020600020905b815481529060010190602001808311610cfc57829003601f168201915b505050505081526020016003820160009054906101000a900473ffffffffffffffffffffffffffffffffffffffff1673ffffffffffffffffffffffffffffffffffffffff1673ffffffffffffffffffffffffffffffffffffffff16815260200160048201805480602002602001604051908101604052809291908181526020018280548015610dfd57602002820191906000526020600020905b8160009054906101000a900473ffffffffffffffffffffffffffffffffffffffff1673ffffffffffffffffffffffffffffffffffffffff1681526020019060010190808311610db3575b50505050508152602001600582015481525050915050610e2d565b8080610e2390612102565b915050610a64565b505b919050565b60008060009054906101000a900473ffffffffffffffffffffffffffffffffffffffff16905090565b610e63611709565b60005b6002805490508160ff1610156112e65760005b60028260ff1681548110610eb6577f4e487b7100000000000000000000000000000000000000000000000000000000600052603260045260246000fd5b9060005260206000209060060201600401805490508160ff1610156112d2578373ffffffffffffffffffffffffffffffffffffffff1660028360ff1681548110610f29577f4e487b7100000000000000000000000000000000000000000000000000000000600052603260045260246000fd5b90600052602060002090600602016004018260ff1681548110610f75577f4e487b7100000000000000000000000000000000000000000000000000000000600052603260045260246000fd5b9060005260206000200160009054906101000a900473ffffffffffffffffffffffffffffffffffffffff1673ffffffffffffffffffffffffffffffffffffffff1614156112bf5760028260ff1681548110610ff9577f4e487b7100000000000000000000000000000000000000000000000000000000600052603260045260246000fd5b90600052602060002090600602016040518060c0016040529081600082018054611022906120d0565b80601f016020809104026020016040519081016040528092919081815260200182805461104e906120d0565b801561109b5780601f106110705761010080835404028352916020019161109b565b820191906000526020600020905b81548152906001019060200180831161107e57829003601f168201915b505050505081526020016001820180546110b4906120d0565b80601f01602080910402602001604051908101604052809291908181526020018280546110e0906120d0565b801561112d5780601f106111025761010080835404028352916020019161112d565b820191906000526020600020905b81548152906001019060200180831161111057829003601f168201915b50505050508152602001600282018054611146906120d0565b80601f0160208091040260200160405190810160405280929190818152602001828054611172906120d0565b80156111bf5780601f10611194576101008083540402835291602001916111bf565b820191906000526020600020905b8154815290600101906020018083116111a257829003601f168201915b505050505081526020016003820160009054906101000a900473ffffffffffffffffffffffffffffffffffffffff1673ffffffffffffffffffffffffffffffffffffffff1673ffffffffffffffffffffffffffffffffffffffff168152602001600482018054806020026020016040519081016040528092919081815260200182805480156112a357602002820191906000526020600020905b8160009054906101000a900473ffffffffffffffffffffffffffffffffffffffff1673ffffffffffffffffffffffffffffffffffffffff1681526020019060010190808311611259575b50505050508152602001600582015481525050925050506112e8565b80806112ca90612102565b915050610e79565b5080806112de90612102565b915050610e66565b505b919050565b6112f5611709565b87878080601f016020809104026020016040519081016040528093929190818152602001838380828437600081840152601f19601f82011690508083019250505050505050816000018190525085858080601f016020809104026020016040519081016040528093929190818152602001838380828437600081840152601f19601f82011690508083019250505050505050816020018190525083838080601f016020809104026020016040519081016040528093929190818152602001838380828437600081840152601f19601f82011690508083019250505050505050816040018190525081816060019073ffffffffffffffffffffffffffffffffffffffff16908173ffffffffffffffffffffffffffffffffffffffff168152505060008160a001818152505060028190806001815401808255809150506001900390600052602060002090600602016000909190919091506000820151816000019080519060200190611467929190611755565b506020820151816001019080519060200190611484929190611755565b5060408201518160020190805190602001906114a1929190611755565b5060608201518160030160006101000a81548173ffffffffffffffffffffffffffffffffffffffff021916908373ffffffffffffffffffffffffffffffffffffffff16021790555060808201518160040190805190602001906115059291906117db565b5060a0820151816005015550505050505050505050565b6000600160009054906101000a900473ffffffffffffffffffffffffffffffffffffffff16905090565b60005b6002805490508160ff161015611702578484604051611569929190611e57565b604051809103902060028260ff16815481106115ae577f4e487b7100000000000000000000000000000000000000000000000000000000600052603260045260246000fd5b90600052602060002090600602016000016040516115cc9190611e70565b604051809103902014156116ef5760028160ff1681548110611617577f4e487b7100000000000000000000000000000000000000000000000000000000600052603260045260246000fd5b9060005260206000209060060201600401829080600181540180825580915050600190039060005260206000200160009091909190916101000a81548173ffffffffffffffffffffffffffffffffffffffff021916908373ffffffffffffffffffffffffffffffffffffffff1602179055508260028260ff16815481106116c7577f4e487b7100000000000000000000000000000000000000000000000000000000600052603260045260246000fd5b906000526020600020906006020160050160008282546116e79190611fef565b925050819055505b80806116fa90612102565b915050611549565b5050505050565b6040518060c00160405280606081526020016060815260200160608152602001600073ffffffffffffffffffffffffffffffffffffffff16815260200160608152602001600081525090565b828054611761906120d0565b90600052602060002090601f01602090048101928261178357600085556117ca565b82601f1061179c57805160ff19168380011785556117ca565b828001600101855582156117ca579182015b828111156117c95782518255916020019190600101906117ae565b5b5090506117d79190611865565b5090565b828054828255906000526020600020908101928215611854579160200282015b828111156118535782518260006101000a81548173ffffffffffffffffffffffffffffffffffffffff021916908373ffffffffffffffffffffffffffffffffffffffff160217905550916020019190600101906117fb565b5b5090506118619190611865565b5090565b5b8082111561187e576000816000905550600101611866565b5090565b6000813590506118918161219b565b92915050565b60008083601f8401126118a957600080fd5b8235905067ffffffffffffffff8111156118c257600080fd5b6020830191508360018202830111156118da57600080fd5b9250929050565b6000813590506118f0816121b2565b92915050565b60006020828403121561190857600080fd5b600061191684828501611882565b91505092915050565b6000806020838503121561193257600080fd5b600083013567ffffffffffffffff81111561194c57600080fd5b61195885828601611897565b92509250509250929050565b60008060008060008060006080888a03121561197f57600080fd5b600088013567ffffffffffffffff81111561199957600080fd5b6119a58a828b01611897565b9750975050602088013567ffffffffffffffff8111156119c457600080fd5b6119d08a828b01611897565b9550955050604088013567ffffffffffffffff8111156119ef57600080fd5b6119fb8a828b01611897565b93509350506060611a0e8a828b01611882565b91505092959891949750929550565b60008060008060608587031215611a3357600080fd5b600085013567ffffffffffffffff811115611a4d57600080fd5b611a5987828801611897565b94509450506020611a6c878288016118e1565b9250506040611a7d87828801611882565b91505092959194509250565b6000611a958383611ac9565b60208301905092915050565b6000611aad8383611cd3565b905092915050565b6000611ac18383611d0c565b905092915050565b611ad281612045565b82525050565b611ae181612045565b82525050565b6000611af282611f4d565b611afc8185611fa0565b9350611b0783611f08565b8060005b83811015611b38578151611b1f8882611a89565b9750611b2a83611f79565b925050600181019050611b0b565b5085935050505092915050565b6000611b5082611f58565b611b5a8185611fb1565b935083602082028501611b6c85611f18565b8060005b85811015611ba85784840389528151611b898582611aa1565b9450611b9483611f86565b925060208a01995050600181019050611b70565b50829750879550505050505092915050565b6000611bc582611f63565b611bcf8185611fc2565b935083602082028501611be185611f28565b8060005b85811015611c1d5784840389528151611bfe8582611ab5565b9450611c0983611f93565b925060208a01995050600181019050611be5565b50829750879550505050505092915050565b6000611c3b8385611fd3565b9350611c4883858461208e565b82840190509392505050565b60008154611c61816120d0565b611c6b8186611fd3565b94506001821660008114611c865760018114611c9757611cca565b60ff19831686528186019350611cca565b611ca085611f38565b60005b83811015611cc257815481890152600182019150602081019050611ca3565b838801955050505b50505092915050565b6000611cde82611f6e565b611ce88185611fde565b9350611cf881856020860161209d565b611d018161218a565b840191505092915050565b600060c0830160008301518482036000860152611d298282611cd3565b91505060208301518482036020860152611d438282611cd3565b91505060408301518482036040860152611d5d8282611cd3565b9150506060830151611d726060860182611ac9565b5060808301518482036080860152611d8a8282611ae7565b91505060a0830151611d9f60a0860182611e48565b508091505092915050565b600060c0830160008301518482036000860152611dc78282611cd3565b91505060208301518482036020860152611de18282611cd3565b91505060408301518482036040860152611dfb8282611cd3565b9150506060830151611e106060860182611ac9565b5060808301518482036080860152611e288282611ae7565b91505060a0830151611e3d60a0860182611e48565b508091505092915050565b611e5181612077565b82525050565b6000611e64828486611c2f565b91508190509392505050565b6000611e7c8284611c54565b915081905092915050565b6000602082019050611e9c6000830184611ad8565b92915050565b60006020820190508181036000830152611ebc8184611b45565b905092915050565b60006020820190508181036000830152611ede8184611bba565b905092915050565b60006020820190508181036000830152611f008184611daa565b905092915050565b6000819050602082019050919050565b6000819050602082019050919050565b6000819050602082019050919050565b60008190508160005260206000209050919050565b600081519050919050565b600081519050919050565b600081519050919050565b600081519050919050565b6000602082019050919050565b6000602082019050919050565b6000602082019050919050565b600082825260208201905092915050565b600082825260208201905092915050565b600082825260208201905092915050565b600081905092915050565b600082825260208201905092915050565b6000611ffa82612077565b915061200583612077565b9250827fffffffffffffffffffffffffffffffffffffffffffffffffffffffffffffffff0382111561203a5761203961212c565b5b828201905092915050565b600061205082612057565b9050919050565b600073ffffffffffffffffffffffffffffffffffffffff82169050919050565b6000819050919050565b600060ff82169050919050565b82818337600083830152505050565b60005b838110156120bb5780820151818401526020810190506120a0565b838111156120ca576000848401525b50505050565b600060028204905060018216806120e857607f821691505b602082108114156120fc576120fb61215b565b5b50919050565b600061210d82612081565b915060ff8214156121215761212061212c565b5b600182019050919050565b7f4e487b7100000000000000000000000000000000000000000000000000000000600052601160045260246000fd5b7f4e487b7100000000000000000000000000000000000000000000000000000000600052602260045260246000fd5b6000601f19601f8301169050919050565b6121a481612045565b81146121af57600080fd5b50565b6121bb81612077565b81146121c657600080fd5b5056fea264697066735822122053f51b39dcdbdc28398082aab159ea9781737155b4eeda9d004f4c4db8750cad64736f6c63430008000033608060405234801561001057600080fd5b50604051610f98380380610f98833981810160405281019061003291906100ce565b806000806101000a81548173ffffffffffffffffffffffffffffffffffffffff021916908373ffffffffffffffffffffffffffffffffffffffff16021790555080600160006101000a81548173ffffffffffffffffffffffffffffffffffffffff021916908373ffffffffffffffffffffffffffffffffffffffff16021790555050610140565b6000815190506100c881610129565b92915050565b6000602082840312156100e057600080fd5b60006100ee848285016100b9565b91505092915050565b600061010282610109565b9050919050565b600073ffffffffffffffffffffffffffffffffffffffff82169050919050565b610132816100f7565b811461013d57600080fd5b50565b610e498061014f6000396000f3fe608060405234801561001057600080fd5b50600436106100415760003560e01c80633645b824146100465780634afcc5221461006257806368ebea1b1461007e575b600080fd5b610060600480360381019061005b9190610929565b6100ae565b005b61007c600480360381019061007791906109cd565b6101a3565b005b61009860048036038101906100939190610900565b6103a0565b6040516100a59190610c61565b60405180910390f35b600115156100ba6106e1565b1515146100fc576040517f08c379a00000000000000000000000000000000000000000000000000000000081526004016100f390610c41565b60405180910390fd5b6000339050600160009054906101000a900473ffffffffffffffffffffffffffffffffffffffff1673ffffffffffffffffffffffffffffffffffffffff1663bf91fc71888888888888886040518863ffffffff1660e01b81526004016101689796959493929190610be1565b600060405180830381600087803b15801561018257600080fd5b505af1158015610196573d6000803e3d6000fd5b5050505050505050505050565b6101ab6107c0565b87878080601f016020809104026020016040519081016040528093929190818152602001838380828437600081840152601f19601f82011690508083019250505050505050816000018190525085858080601f016020809104026020016040519081016040528093929190818152602001838380828437600081840152601f19601f82011690508083019250505050505050816020018190525083838080601f016020809104026020016040519081016040528093929190818152602001838380828437600081840152601f19601f82011690508083019250505050505050816040018190525081816060019073ffffffffffffffffffffffffffffffffffffffff16908173ffffffffffffffffffffffffffffffffffffffff1681525050600281908060018154018082558091505060019003906000526020600020906004020160009091909190915060008201518160000190805190602001906103129291906107fe565b50602082015181600101908051906020019061032f9291906107fe565b50604082015181600201908051906020019061034c9291906107fe565b5060608201518160030160006101000a81548173ffffffffffffffffffffffffffffffffffffffff021916908373ffffffffffffffffffffffffffffffffffffffff16021790555050505050505050505050565b6103a86107c0565b60005b6002805490508160ff1610156106da578273ffffffffffffffffffffffffffffffffffffffff1660028260ff168154811061040f577f4e487b7100000000000000000000000000000000000000000000000000000000600052603260045260246000fd5b906000526020600020906004020160030160009054906101000a900473ffffffffffffffffffffffffffffffffffffffff1673ffffffffffffffffffffffffffffffffffffffff1614156106c75760028160ff168154811061049a577f4e487b7100000000000000000000000000000000000000000000000000000000600052603260045260246000fd5b90600052602060002090600402016040518060800160405290816000820180546104c390610d31565b80601f01602080910402602001604051908101604052809291908181526020018280546104ef90610d31565b801561053c5780601f106105115761010080835404028352916020019161053c565b820191906000526020600020905b81548152906001019060200180831161051f57829003601f168201915b5050505050815260200160018201805461055590610d31565b80601f016020809104026020016040519081016040528092919081815260200182805461058190610d31565b80156105ce5780601f106105a3576101008083540402835291602001916105ce565b820191906000526020600020905b8154815290600101906020018083116105b157829003601f168201915b505050505081526020016002820180546105e790610d31565b80601f016020809104026020016040519081016040528092919081815260200182805461061390610d31565b80156106605780601f1061063557610100808354040283529160200191610660565b820191906000526020600020905b81548152906001019060200180831161064357829003601f168201915b505050505081526020016003820160009054906101000a900473ffffffffffffffffffffffffffffffffffffffff1673ffffffffffffffffffffffffffffffffffffffff1673ffffffffffffffffffffffffffffffffffffffff16815250509150506106dc565b80806106d290610d63565b9150506103ab565b505b919050565b60008033905060005b6002805490508160ff1610156107ba578173ffffffffffffffffffffffffffffffffffffffff1660028260ff168154811061074e577f4e487b7100000000000000000000000000000000000000000000000000000000600052603260045260246000fd5b906000526020600020906004020160030160009054906101000a900473ffffffffffffffffffffffffffffffffffffffff1673ffffffffffffffffffffffffffffffffffffffff1614156107a7576001925050506107bd565b80806107b290610d63565b9150506106ea565b50505b90565b6040518060800160405280606081526020016060815260200160608152602001600073ffffffffffffffffffffffffffffffffffffffff1681525090565b82805461080a90610d31565b90600052602060002090601f01602090048101928261082c5760008555610873565b82601f1061084557805160ff1916838001178555610873565b82800160010185558215610873579182015b82811115610872578251825591602001919060010190610857565b5b5090506108809190610884565b5090565b5b8082111561089d576000816000905550600101610885565b5090565b6000813590506108b081610dfc565b92915050565b60008083601f8401126108c857600080fd5b8235905067ffffffffffffffff8111156108e157600080fd5b6020830191508360018202830111156108f957600080fd5b9250929050565b60006020828403121561091257600080fd5b6000610920848285016108a1565b91505092915050565b6000806000806000806060878903121561094257600080fd5b600087013567ffffffffffffffff81111561095c57600080fd5b61096889828a016108b6565b9650965050602087013567ffffffffffffffff81111561098757600080fd5b61099389828a016108b6565b9450945050604087013567ffffffffffffffff8111156109b257600080fd5b6109be89828a016108b6565b92509250509295509295509295565b60008060008060008060006080888a0312156109e857600080fd5b600088013567ffffffffffffffff811115610a0257600080fd5b610a0e8a828b016108b6565b9750975050602088013567ffffffffffffffff811115610a2d57600080fd5b610a398a828b016108b6565b9550955050604088013567ffffffffffffffff811115610a5857600080fd5b610a648a828b016108b6565b93509350506060610a778a828b016108a1565b91505092959891949750929550565b610a8f81610cb0565b82525050565b610a9e81610cb0565b82525050565b6000610ab08385610c9f565b9350610abd838584610cef565b610ac683610deb565b840190509392505050565b6000610adc82610c83565b610ae68185610c8e565b9350610af6818560208601610cfe565b610aff81610deb565b840191505092915050565b6000610b17602b83610c9f565b91507f796f75277265206e6f7420726567697374657221206b696e646c79207265676960008301527f737465722066697273742e0000000000000000000000000000000000000000006020830152604082019050919050565b60006080830160008301518482036000860152610b8d8282610ad1565b91505060208301518482036020860152610ba78282610ad1565b91505060408301518482036040860152610bc18282610ad1565b9150506060830151610bd66060860182610a86565b508091505092915050565b60006080820190508181036000830152610bfc81898b610aa4565b90508181036020830152610c11818789610aa4565b90508181036040830152610c26818587610aa4565b9050610c356060830184610a95565b98975050505050505050565b60006020820190508181036000830152610c5a81610b0a565b9050919050565b60006020820190508181036000830152610c7b8184610b70565b905092915050565b600081519050919050565b600082825260208201905092915050565b600082825260208201905092915050565b6000610cbb82610cc2565b9050919050565b600073ffffffffffffffffffffffffffffffffffffffff82169050919050565b600060ff82169050919050565b82818337600083830152505050565b60005b83811015610d1c578082015181840152602081019050610d01565b83811115610d2b576000848401525b50505050565b60006002820490506001821680610d4957607f821691505b60208210811415610d5d57610d5c610dbc565b5b50919050565b6000610d6e82610ce2565b915060ff821415610d8257610d81610d8d565b5b600182019050919050565b7f4e487b7100000000000000000000000000000000000000000000000000000000600052601160045260246000fd5b7f4e487b7100000000000000000000000000000000000000000000000000000000600052602260045260246000fd5b6000601f19601f8301169050919050565b610e0581610cb0565b8114610e1057600080fd5b5056fea2646970667358221220597ad894685db062de18bc57b761eefa0da18e7b958fd457a041e192f92d230b64736f6c6343000800003360806040523480156200001157600080fd5b50604051620013aa380380620013aa8339818101604052810190620000379190620000d6565b806000806101000a81548173ffffffffffffffffffffffffffffffffffffffff021916908373ffffffffffffffffffffffffffffffffffffffff16021790555080600160006101000a81548173ffffffffffffffffffffffffffffffffffffffff021916908373ffffffffffffffffffffffffffffffffffffffff1602179055505062000150565b600081519050620000d08162000136565b92915050565b600060208284031215620000e957600080fd5b6000620000f984828501620000bf565b91505092915050565b60006200010f8262000116565b9050919050565b600073ffffffffffffffffffffffffffffffffffffffff82169050919050565b620001418162000102565b81146200014d57600080fd5b50565b61124a80620001606000396000f3fe608060405234801561001057600080fd5b50600436106100575760003560e01c80633e0dfbdf1461005c5780633f8b850a1461008c5780637162c5ab146100a85780638e5290d7146100c4578063b2f5a54c146100e2575b600080fd5b61007660048036038101906100719190610bc4565b610100565b6040516100839190610ffc565b60405180910390f35b6100a660048036038101906100a19190610bed565b61043b565b005b6100c260048036038101906100bd9190610ca6565b610638565b005b6100cc610725565b6040516100d99190610f81565b60405180910390f35b6100ea610804565b6040516100f79190610f5f565b60405180910390f35b610108610a6f565b60005b6002805490508160ff161015610435578273ffffffffffffffffffffffffffffffffffffffff1660028260ff168154811061016f577f4e487b7100000000000000000000000000000000000000000000000000000000600052603260045260246000fd5b906000526020600020906004020160030160009054906101000a900473ffffffffffffffffffffffffffffffffffffffff1673ffffffffffffffffffffffffffffffffffffffff1614156104225760028160ff16815481106101fa577f4e487b7100000000000000000000000000000000000000000000000000000000600052603260045260246000fd5b90600052602060002090600402016040518060800160405290816000820180546102239061111b565b80601f016020809104026020016040519081016040528092919081815260200182805461024f9061111b565b801561029c5780601f106102715761010080835404028352916020019161029c565b820191906000526020600020905b81548152906001019060200180831161027f57829003601f168201915b505050505081526020016001820180546102b59061111b565b80601f01602080910402602001604051908101604052809291908181526020018280546102e19061111b565b801561032e5780601f106103035761010080835404028352916020019161032e565b820191906000526020600020905b81548152906001019060200180831161031157829003601f168201915b505050505081526020016002820180546103479061111b565b80601f01602080910402602001604051908101604052809291908181526020018280546103739061111b565b80156103c05780601f10610395576101008083540402835291602001916103c0565b820191906000526020600020905b8154815290600101906020018083116103a357829003601f168201915b505050505081526020016003820160009054906101000a900473ffffffffffffffffffffffffffffffffffffffff1673ffffffffffffffffffffffffffffffffffffffff1673ffffffffffffffffffffffffffffffffffffffff168152505091505b808061042d9061114d565b91505061010b565b50919050565b610443610a6f565b87878080601f016020809104026020016040519081016040528093929190818152602001838380828437600081840152601f19601f82011690508083019250505050505050816000018190525085858080601f016020809104026020016040519081016040528093929190818152602001838380828437600081840152601f19601f82011690508083019250505050505050816020018190525083838080601f016020809104026020016040519081016040528093929190818152602001838380828437600081840152601f19601f82011690508083019250505050505050816040018190525081816060019073ffffffffffffffffffffffffffffffffffffffff16908173ffffffffffffffffffffffffffffffffffffffff1681525050600281908060018154018082558091505060019003906000526020600020906004020160009091909190915060008201518160000190805190602001906105aa929190610aad565b5060208201518160010190805190602001906105c7929190610aad565b5060408201518160020190805190602001906105e4929190610aad565b5060608201518160030160006101000a81548173ffffffffffffffffffffffffffffffffffffffff021916908373ffffffffffffffffffffffffffffffffffffffff16021790555050505050505050505050565b60011515610644610725565b151514610686576040517f08c379a000000000000000000000000000000000000000000000000000000000815260040161067d90610fdc565b60405180910390fd5b6000819050600160009054906101000a900473ffffffffffffffffffffffffffffffffffffffff1673ffffffffffffffffffffffffffffffffffffffff1663fb8aa43d868686856040518563ffffffff1660e01b81526004016106ec9493929190610f9c565b600060405180830381600087803b15801561070657600080fd5b505af115801561071a573d6000803e3d6000fd5b505050505050505050565b60008033905060005b6002805490508160ff1610156107fe578173ffffffffffffffffffffffffffffffffffffffff1660028260ff1681548110610792577f4e487b7100000000000000000000000000000000000000000000000000000000600052603260045260246000fd5b906000526020600020906004020160030160009054906101000a900473ffffffffffffffffffffffffffffffffffffffff1673ffffffffffffffffffffffffffffffffffffffff1614156107eb57600192505050610801565b80806107f69061114d565b91505061072e565b50505b90565b60606002805480602002602001604051908101604052809291908181526020016000905b82821015610a66578382906000526020600020906004020160405180608001604052908160008201805461085b9061111b565b80601f01602080910402602001604051908101604052809291908181526020018280546108879061111b565b80156108d45780601f106108a9576101008083540402835291602001916108d4565b820191906000526020600020905b8154815290600101906020018083116108b757829003601f168201915b505050505081526020016001820180546108ed9061111b565b80601f01602080910402602001604051908101604052809291908181526020018280546109199061111b565b80156109665780601f1061093b57610100808354040283529160200191610966565b820191906000526020600020905b81548152906001019060200180831161094957829003601f168201915b5050505050815260200160028201805461097f9061111b565b80601f01602080910402602001604051908101604052809291908181526020018280546109ab9061111b565b80156109f85780601f106109cd576101008083540402835291602001916109f8565b820191906000526020600020905b8154815290600101906020018083116109db57829003601f168201915b505050505081526020016003820160009054906101000a900473ffffffffffffffffffffffffffffffffffffffff1673ffffffffffffffffffffffffffffffffffffffff1673ffffffffffffffffffffffffffffffffffffffff168152505081526020019060010190610828565b50505050905090565b6040518060800160405280606081526020016060815260200160608152602001600073ffffffffffffffffffffffffffffffffffffffff1681525090565b828054610ab99061111b565b90600052602060002090601f016020900481019282610adb5760008555610b22565b82601f10610af457805160ff1916838001178555610b22565b82800160010185558215610b22579182015b82811115610b21578251825591602001919060010190610b06565b5b509050610b2f9190610b33565b5090565b5b80821115610b4c576000816000905550600101610b34565b5090565b600081359050610b5f816111e6565b92915050565b60008083601f840112610b7757600080fd5b8235905067ffffffffffffffff811115610b9057600080fd5b602083019150836001820283011115610ba857600080fd5b9250929050565b600081359050610bbe816111fd565b92915050565b600060208284031215610bd657600080fd5b6000610be484828501610b50565b91505092915050565b60008060008060008060006080888a031215610c0857600080fd5b600088013567ffffffffffffffff811115610c2257600080fd5b610c2e8a828b01610b65565b9750975050602088013567ffffffffffffffff811115610c4d57600080fd5b610c598a828b01610b65565b9550955050604088013567ffffffffffffffff811115610c7857600080fd5b610c848a828b01610b65565b93509350506060610c978a828b01610b50565b91505092959891949750929550565b60008060008060608587031215610cbc57600080fd5b600085013567ffffffffffffffff811115610cd657600080fd5b610ce287828801610b65565b94509450506020610cf587828801610baf565b9250506040610d0687828801610b50565b91505092959194509250565b6000610d1e8383610e6e565b905092915050565b610d2f81611084565b82525050565b610d3e81611084565b82525050565b6000610d4f8261102e565b610d598185611051565b935083602082028501610d6b8561101e565b8060005b85811015610da75784840389528151610d888582610d12565b9450610d9383611044565b925060208a01995050600181019050610d6f565b50829750879550505050505092915050565b610dc281611096565b82525050565b6000610dd48385611073565b9350610de18385846110d9565b610dea836111d5565b840190509392505050565b6000610e0082611039565b610e0a8185611062565b9350610e1a8185602086016110e8565b610e23816111d5565b840191505092915050565b6000610e3b602083611073565b91507f796f75277265206e6f7420726567697374657220617320696e766573746f722e6000830152602082019050919050565b60006080830160008301518482036000860152610e8b8282610df5565b91505060208301518482036020860152610ea58282610df5565b91505060408301518482036040860152610ebf8282610df5565b9150506060830151610ed46060860182610d26565b508091505092915050565b60006080830160008301518482036000860152610efc8282610df5565b91505060208301518482036020860152610f168282610df5565b91505060408301518482036040860152610f308282610df5565b9150506060830151610f456060860182610d26565b508091505092915050565b610f59816110c2565b82525050565b60006020820190508181036000830152610f798184610d44565b905092915050565b6000602082019050610f966000830184610db9565b92915050565b60006060820190508181036000830152610fb7818688610dc8565b9050610fc66020830185610f50565b610fd36040830184610d35565b95945050505050565b60006020820190508181036000830152610ff581610e2e565b9050919050565b600060208201905081810360008301526110168184610edf565b905092915050565b6000819050602082019050919050565b600081519050919050565b600081519050919050565b6000602082019050919050565b600082825260208201905092915050565b600082825260208201905092915050565b600082825260208201905092915050565b600061108f826110a2565b9050919050565b60008115159050919050565b600073ffffffffffffffffffffffffffffffffffffffff82169050919050565b6000819050919050565b600060ff82169050919050565b82818337600083830152505050565b60005b838110156111065780820151818401526020810190506110eb565b83811115611115576000848401525b50505050565b6000600282049050600182168061113357607f821691505b60208210811415611147576111466111a6565b5b50919050565b6000611158826110cc565b915060ff82141561116c5761116b611177565b5b600182019050919050565b7f4e487b7100000000000000000000000000000000000000000000000000000000600052601160045260246000fd5b7f4e487b7100000000000000000000000000000000000000000000000000000000600052602260045260246000fd5b6000601f19601f8301169050919050565b6111ef81611084565b81146111fa57600080fd5b50565b611206816110c2565b811461121157600080fd5b5056fea2646970667358221220b9f5c34278c6ee1d64acdbb81e271c6b0253b155d39c612b412b2611d8ceea8164736f6c63430008000033",
  "immutableReferences": {},
  "source": "// SPDX-License-Identifier: MIT\r\n// solium-disable linebreak-style\r\npragma solidity >= 0.4.22 < 0.9.0;\r\n\r\nimport \"./Ideator.sol\";\r\nimport \"./Investor.sol\";\r\n\r\ncontract ContractOwner {\r\n    Ideator ideatorObj;\r\n    Investor investorObj;   \r\n\r\n     struct idea_info {\r\n        string code;\r\n        string title;\r\n        string description;\r\n        address ideaOwner;\r\n        address [] investors;\r\n        uint amount;\r\n    }\r\n\r\n    idea_info [] ideas_arr; // contains multiple ideas\r\n\r\n    constructor() {\r\n        ideatorObj = new Ideator( address(this) );\r\n        investorObj = new Investor( address(this) );\r\n    }\r\n\r\n    function saveIdea(string calldata _code, string calldata _title, string calldata _description, address _account) public {\r\n        idea_info memory idea;\r\n        idea.code = _code;\r\n        idea.title = _title;\r\n        idea.description = _description;\r\n        idea.ideaOwner = _account;\r\n        idea.amount = 0;\r\n        ideas_arr.push(idea);\r\n    }\r\n\r\n     function getIdeasByIdeatorAddress(address _account) public view returns(idea_info memory tempIdea) {\r\n         for(uint8 i=0; i<ideas_arr.length; i++) {\r\n             if( ideas_arr[i].ideaOwner == _account ) {\r\n                 return ideas_arr[i];\r\n             }\r\n         }\r\n    }\r\n\r\n    function getIdeas() public view returns(idea_info [] memory) {\r\n        return ideas_arr;\r\n    }\r\n\r\n    function getIdeaByCode(string calldata _code) public view returns(idea_info memory tempIdea) {\r\n        for(uint8 i=0; i<ideas_arr.length; i++) {\r\n            if( keccak256(bytes(ideas_arr[i].code)) == keccak256(bytes(_code))) {\r\n                return ideas_arr[i];\r\n            }\r\n        }\r\n    }\r\n\r\n    // call from investor contract\r\n    function receiveIdeaDonations(string calldata _code, uint _amount, address _account) public {\r\n        for(uint8 i=0; i<ideas_arr.length; i++) {\r\n            if( keccak256(bytes(ideas_arr[i].code)) == keccak256(bytes(_code)) ) {\r\n                ideas_arr[i].investors.push(_account);\r\n                ideas_arr[i].amount += _amount;\r\n            }\r\n        }\r\n    }\r\n    \r\n    // Get All Idea Codes\r\n    function getIdeaCodes() public view returns(string [] memory codes) {\r\n        codes = new string[](ideas_arr.length);\r\n        for(uint8 i=0; i<ideas_arr.length; i++) {\r\n            codes[i] = ideas_arr[i].code;\r\n        }\r\n        return codes;\r\n    }\r\n\r\n    function getIdeaOnInvestor(address _account) public view returns(idea_info memory investorIdea) {\r\n        for(uint8 i=0; i<ideas_arr.length; i++) {\r\n            for(uint8 j=0; j<ideas_arr[i].investors.length; j++) {\r\n                if( ideas_arr[i].investors[j] == _account ) {\r\n                    return ideas_arr[i];\r\n                }\r\n            }\r\n        }\r\n    }\r\n\r\n    function getIdeatorContractAddress() public view returns(address ideatorAddr) {\r\n        ideatorAddr = address(ideatorObj);\r\n    }\r\n\r\n    function getInvestorContractAddress() public view returns(address investorAddr) {\r\n        investorAddr = address(investorObj);\r\n    }\r\n\r\n}",
  "sourcePath": "E:\\3 - Al Nafi\\Blockchain\\Labs\\side_projects\\crowdfunding_dapp\\contracts\\ContractOwner.sol",
  "compiler": {
    "name": "solc",
    "version": "0.8.0+commit.c7dfd78e.Emscripten.clang"
  },
  "schemaVersion": "3.4.3",
  "updatedAt": "2022-01-07T15:04:15.706Z",
  "networkType": "ethereum",
  "devdoc": {
    "kind": "dev",
    "methods": {},
    "version": 1
  },
  "userdoc": {
    "kind": "user",
    "methods": {},
    "version": 1
  }
}