{
  "contractName": "Ideator",
  "abi": [
    {
      "inputs": [
        {
          "internalType": "address",
          "name": "_contractOwner",
          "type": "address"
        }
      ],
      "stateMutability": "nonpayable",
      "type": "constructor"
    },
    {
      "inputs": [
        {
          "internalType": "string",
          "name": "_name",
          "type": "string"
        },
        {
          "internalType": "string",
          "name": "_photo",
          "type": "string"
        },
        {
          "internalType": "string",
          "name": "_education",
          "type": "string"
        },
        {
          "internalType": "address",
          "name": "_account",
          "type": "address"
        }
      ],
      "name": "register_ideator",
      "outputs": [],
      "stateMutability": "nonpayable",
      "type": "function"
    },
    {
      "inputs": [
        {
          "internalType": "string",
          "name": "_code",
          "type": "string"
        },
        {
          "internalType": "string",
          "name": "_title",
          "type": "string"
        },
        {
          "internalType": "string",
          "name": "_description",
          "type": "string"
        }
      ],
      "name": "postIdea",
      "outputs": [],
      "stateMutability": "nonpayable",
      "type": "function"
    },
    {
      "inputs": [
        {
          "internalType": "address",
          "name": "_account",
          "type": "address"
        }
      ],
      "name": "getIdeatorByAddress",
      "outputs": [
        {
          "components": [
            {
              "internalType": "string",
              "name": "name",
              "type": "string"
            },
            {
              "internalType": "string",
              "name": "photo",
              "type": "string"
            },
            {
              "internalType": "string",
              "name": "education",
              "type": "string"
            },
            {
              "internalType": "address",
              "name": "account",
              "type": "address"
            }
          ],
          "internalType": "struct Ideator.ideator_info",
          "name": "tempIdeator",
          "type": "tuple"
        }
      ],
      "stateMutability": "view",
      "type": "function"
    }
  ],
  "bytecode": "0x608060405234801561001057600080fd5b50604051610f98380380610f98833981810160405281019061003291906100ce565b806000806101000a81548173ffffffffffffffffffffffffffffffffffffffff021916908373ffffffffffffffffffffffffffffffffffffffff16021790555080600160006101000a81548173ffffffffffffffffffffffffffffffffffffffff021916908373ffffffffffffffffffffffffffffffffffffffff16021790555050610140565b6000815190506100c881610129565b92915050565b6000602082840312156100e057600080fd5b60006100ee848285016100b9565b91505092915050565b600061010282610109565b9050919050565b600073ffffffffffffffffffffffffffffffffffffffff82169050919050565b610132816100f7565b811461013d57600080fd5b50565b610e498061014f6000396000f3fe608060405234801561001057600080fd5b50600436106100415760003560e01c80633645b824146100465780634afcc5221461006257806368ebea1b1461007e575b600080fd5b610060600480360381019061005b9190610929565b6100ae565b005b61007c600480360381019061007791906109cd565b6101a3565b005b61009860048036038101906100939190610900565b6103a0565b6040516100a59190610c61565b60405180910390f35b600115156100ba6106e1565b1515146100fc576040517f08c379a00000000000000000000000000000000000000000000000000000000081526004016100f390610c41565b60405180910390fd5b6000339050600160009054906101000a900473ffffffffffffffffffffffffffffffffffffffff1673ffffffffffffffffffffffffffffffffffffffff1663bf91fc71888888888888886040518863ffffffff1660e01b81526004016101689796959493929190610be1565b600060405180830381600087803b15801561018257600080fd5b505af1158015610196573d6000803e3d6000fd5b5050505050505050505050565b6101ab6107c0565b87878080601f016020809104026020016040519081016040528093929190818152602001838380828437600081840152601f19601f82011690508083019250505050505050816000018190525085858080601f016020809104026020016040519081016040528093929190818152602001838380828437600081840152601f19601f82011690508083019250505050505050816020018190525083838080601f016020809104026020016040519081016040528093929190818152602001838380828437600081840152601f19601f82011690508083019250505050505050816040018190525081816060019073ffffffffffffffffffffffffffffffffffffffff16908173ffffffffffffffffffffffffffffffffffffffff1681525050600281908060018154018082558091505060019003906000526020600020906004020160009091909190915060008201518160000190805190602001906103129291906107fe565b50602082015181600101908051906020019061032f9291906107fe565b50604082015181600201908051906020019061034c9291906107fe565b5060608201518160030160006101000a81548173ffffffffffffffffffffffffffffffffffffffff021916908373ffffffffffffffffffffffffffffffffffffffff16021790555050505050505050505050565b6103a86107c0565b60005b6002805490508160ff1610156106da578273ffffffffffffffffffffffffffffffffffffffff1660028260ff168154811061040f577f4e487b7100000000000000000000000000000000000000000000000000000000600052603260045260246000fd5b906000526020600020906004020160030160009054906101000a900473ffffffffffffffffffffffffffffffffffffffff1673ffffffffffffffffffffffffffffffffffffffff1614156106c75760028160ff168154811061049a577f4e487b7100000000000000000000000000000000000000000000000000000000600052603260045260246000fd5b90600052602060002090600402016040518060800160405290816000820180546104c390610d31565b80601f01602080910402602001604051908101604052809291908181526020018280546104ef90610d31565b801561053c5780601f106105115761010080835404028352916020019161053c565b820191906000526020600020905b81548152906001019060200180831161051f57829003601f168201915b5050505050815260200160018201805461055590610d31565b80601f016020809104026020016040519081016040528092919081815260200182805461058190610d31565b80156105ce5780601f106105a3576101008083540402835291602001916105ce565b820191906000526020600020905b8154815290600101906020018083116105b157829003601f168201915b505050505081526020016002820180546105e790610d31565b80601f016020809104026020016040519081016040528092919081815260200182805461061390610d31565b80156106605780601f1061063557610100808354040283529160200191610660565b820191906000526020600020905b81548152906001019060200180831161064357829003601f168201915b505050505081526020016003820160009054906101000a900473ffffffffffffffffffffffffffffffffffffffff1673ffffffffffffffffffffffffffffffffffffffff1673ffffffffffffffffffffffffffffffffffffffff16815250509150506106dc565b80806106d290610d63565b9150506103ab565b505b919050565b60008033905060005b6002805490508160ff1610156107ba578173ffffffffffffffffffffffffffffffffffffffff1660028260ff168154811061074e577f4e487b7100000000000000000000000000000000000000000000000000000000600052603260045260246000fd5b906000526020600020906004020160030160009054906101000a900473ffffffffffffffffffffffffffffffffffffffff1673ffffffffffffffffffffffffffffffffffffffff1614156107a7576001925050506107bd565b80806107b290610d63565b9150506106ea565b50505b90565b6040518060800160405280606081526020016060815260200160608152602001600073ffffffffffffffffffffffffffffffffffffffff1681525090565b82805461080a90610d31565b90600052602060002090601f01602090048101928261082c5760008555610873565b82601f1061084557805160ff1916838001178555610873565b82800160010185558215610873579182015b82811115610872578251825591602001919060010190610857565b5b5090506108809190610884565b5090565b5b8082111561089d576000816000905550600101610885565b5090565b6000813590506108b081610dfc565b92915050565b60008083601f8401126108c857600080fd5b8235905067ffffffffffffffff8111156108e157600080fd5b6020830191508360018202830111156108f957600080fd5b9250929050565b60006020828403121561091257600080fd5b6000610920848285016108a1565b91505092915050565b6000806000806000806060878903121561094257600080fd5b600087013567ffffffffffffffff81111561095c57600080fd5b61096889828a016108b6565b9650965050602087013567ffffffffffffffff81111561098757600080fd5b61099389828a016108b6565b9450945050604087013567ffffffffffffffff8111156109b257600080fd5b6109be89828a016108b6565b92509250509295509295509295565b60008060008060008060006080888a0312156109e857600080fd5b600088013567ffffffffffffffff811115610a0257600080fd5b610a0e8a828b016108b6565b9750975050602088013567ffffffffffffffff811115610a2d57600080fd5b610a398a828b016108b6565b9550955050604088013567ffffffffffffffff811115610a5857600080fd5b610a648a828b016108b6565b93509350506060610a778a828b016108a1565b91505092959891949750929550565b610a8f81610cb0565b82525050565b610a9e81610cb0565b82525050565b6000610ab08385610c9f565b9350610abd838584610cef565b610ac683610deb565b840190509392505050565b6000610adc82610c83565b610ae68185610c8e565b9350610af6818560208601610cfe565b610aff81610deb565b840191505092915050565b6000610b17602b83610c9f565b91507f796f75277265206e6f7420726567697374657221206b696e646c79207265676960008301527f737465722066697273742e0000000000000000000000000000000000000000006020830152604082019050919050565b60006080830160008301518482036000860152610b8d8282610ad1565b91505060208301518482036020860152610ba78282610ad1565b91505060408301518482036040860152610bc18282610ad1565b9150506060830151610bd66060860182610a86565b508091505092915050565b60006080820190508181036000830152610bfc81898b610aa4565b90508181036020830152610c11818789610aa4565b90508181036040830152610c26818587610aa4565b9050610c356060830184610a95565b98975050505050505050565b60006020820190508181036000830152610c5a81610b0a565b9050919050565b60006020820190508181036000830152610c7b8184610b70565b905092915050565b600081519050919050565b600082825260208201905092915050565b600082825260208201905092915050565b6000610cbb82610cc2565b9050919050565b600073ffffffffffffffffffffffffffffffffffffffff82169050919050565b600060ff82169050919050565b82818337600083830152505050565b60005b83811015610d1c578082015181840152602081019050610d01565b83811115610d2b576000848401525b50505050565b60006002820490506001821680610d4957607f821691505b60208210811415610d5d57610d5c610dbc565b5b50919050565b6000610d6e82610ce2565b915060ff821415610d8257610d81610d8d565b5b600182019050919050565b7f4e487b7100000000000000000000000000000000000000000000000000000000600052601160045260246000fd5b7f4e487b7100000000000000000000000000000000000000000000000000000000600052602260045260246000fd5b6000601f19601f8301169050919050565b610e0581610cb0565b8114610e1057600080fd5b5056fea2646970667358221220597ad894685db062de18bc57b761eefa0da18e7b958fd457a041e192f92d230b64736f6c63430008000033",
  "immutableReferences": {},
  "source": "// SPDX-License-Identifier: MIT\r\n// solium-disable linebreak-style\r\npragma solidity >= 0.4.22 < 0.9.0;\r\n\r\nimport \"./ContractOwner.sol\";\r\n\r\ncontract Ideator {\r\n    address contractOwner; // address of ContractOwner contract\r\n    ContractOwner contractOwnerObj; // object of ContractOwner contract\r\n\r\n    struct ideator_info {\r\n        string name;\r\n        string photo;\r\n        string education;\r\n        address account;\r\n    }\r\n\r\n    ideator_info [] ideators; // contains multiple ideators\r\n\r\n\r\n    constructor(address _contractOwner) {\r\n        contractOwner = _contractOwner;\r\n        contractOwnerObj = ContractOwner(_contractOwner);\r\n    }\r\n\r\n    modifier is_ideator() {\r\n        require( is_ideator_exists() == true, \"you're not register! kindly register first.\" );\r\n        _;\r\n    }\r\n\r\n    function register_ideator(string calldata _name, string calldata _photo, string calldata _education, address _account ) public {\r\n        ideator_info memory ideator;\r\n        ideator.name = _name;\r\n        ideator.photo = _photo;\r\n        ideator.education = _education;\r\n        ideator.account = _account;\r\n        ideators.push(ideator);\r\n    }\r\n\r\n    function postIdea(string calldata _code, string calldata _title, string calldata _description ) public is_ideator {\r\n        address idea_owner = msg.sender;\r\n        contractOwnerObj.saveIdea(_code, _title, _description, idea_owner);\r\n    }\r\n\r\n    function getIdeatorByAddress(address _account) public view returns(ideator_info memory tempIdeator) {\r\n        for(uint8 i=0; i<ideators.length; i++) {\r\n            if(ideators[i].account == _account) {\r\n                tempIdeator = ideators[i];\r\n                return tempIdeator;\r\n            }\r\n        }\r\n    }\r\n\r\n    function is_ideator_exists() private view returns(bool tempFlag) {\r\n        address ideator = msg.sender;\r\n        for(uint8 i=0; i<ideators.length; i++) {\r\n            if(ideators[i].account == ideator) {\r\n                return true;\r\n            }\r\n        }\r\n    }\r\n\r\n}",
  "sourcePath": "E:\\3 - Al Nafi\\Blockchain\\Labs\\side_projects\\crowdfunding_dapp\\contracts\\Ideator.sol",
  "compiler": {
    "name": "solc",
    "version": "0.8.0+commit.c7dfd78e.Emscripten.clang"
  },
  "schemaVersion": "3.4.3",
  "updatedAt": "2022-01-07T15:04:08.062Z",
  "devdoc": {
    "kind": "dev",
    "methods": {},
    "version": 1
  },
  "userdoc": {
    "kind": "user",
    "methods": {},
    "version": 1
  }
}