{
  "contractName": "Investor",
  "abi": [
    {
      "inputs": [
        {
          "internalType": "address",
          "name": "_contractOwner",
          "type": "address"
        }
      ],
      "stateMutability": "nonpayable",
      "type": "constructor"
    },
    {
      "inputs": [
        {
          "internalType": "string",
          "name": "_name",
          "type": "string"
        },
        {
          "internalType": "string",
          "name": "_photo",
          "type": "string"
        },
        {
          "internalType": "string",
          "name": "_occupation",
          "type": "string"
        },
        {
          "internalType": "address",
          "name": "_account",
          "type": "address"
        }
      ],
      "name": "register_investor",
      "outputs": [],
      "stateMutability": "nonpayable",
      "type": "function"
    },
    {
      "inputs": [
        {
          "internalType": "address",
          "name": "_account",
          "type": "address"
        }
      ],
      "name": "getInvestorByAddress",
      "outputs": [
        {
          "components": [
            {
              "internalType": "string",
              "name": "name",
              "type": "string"
            },
            {
              "internalType": "string",
              "name": "photo",
              "type": "string"
            },
            {
              "internalType": "string",
              "name": "occupation",
              "type": "string"
            },
            {
              "internalType": "address",
              "name": "account",
              "type": "address"
            }
          ],
          "internalType": "struct Investor.investor_info",
          "name": "tempInvestor",
          "type": "tuple"
        }
      ],
      "stateMutability": "view",
      "type": "function"
    },
    {
      "inputs": [],
      "name": "getInvestors",
      "outputs": [
        {
          "components": [
            {
              "internalType": "string",
              "name": "name",
              "type": "string"
            },
            {
              "internalType": "string",
              "name": "photo",
              "type": "string"
            },
            {
              "internalType": "string",
              "name": "occupation",
              "type": "string"
            },
            {
              "internalType": "address",
              "name": "account",
              "type": "address"
            }
          ],
          "internalType": "struct Investor.investor_info[]",
          "name": "",
          "type": "tuple[]"
        }
      ],
      "stateMutability": "view",
      "type": "function"
    },
    {
      "inputs": [
        {
          "internalType": "string",
          "name": "_code",
          "type": "string"
        },
        {
          "internalType": "uint256",
          "name": "_amount",
          "type": "uint256"
        },
        {
          "internalType": "address",
          "name": "_account",
          "type": "address"
        }
      ],
      "name": "investInIdea",
      "outputs": [],
      "stateMutability": "nonpayable",
      "type": "function"
    },
    {
      "inputs": [],
      "name": "is_investor_exits",
      "outputs": [
        {
          "internalType": "bool",
          "name": "investor",
          "type": "bool"
        }
      ],
      "stateMutability": "view",
      "type": "function"
    }
  ],
  "bytecode": "0x60806040523480156200001157600080fd5b50604051620013aa380380620013aa8339818101604052810190620000379190620000d6565b806000806101000a81548173ffffffffffffffffffffffffffffffffffffffff021916908373ffffffffffffffffffffffffffffffffffffffff16021790555080600160006101000a81548173ffffffffffffffffffffffffffffffffffffffff021916908373ffffffffffffffffffffffffffffffffffffffff1602179055505062000150565b600081519050620000d08162000136565b92915050565b600060208284031215620000e957600080fd5b6000620000f984828501620000bf565b91505092915050565b60006200010f8262000116565b9050919050565b600073ffffffffffffffffffffffffffffffffffffffff82169050919050565b620001418162000102565b81146200014d57600080fd5b50565b61124a80620001606000396000f3fe608060405234801561001057600080fd5b50600436106100575760003560e01c80633e0dfbdf1461005c5780633f8b850a1461008c5780637162c5ab146100a85780638e5290d7146100c4578063b2f5a54c146100e2575b600080fd5b61007660048036038101906100719190610bc4565b610100565b6040516100839190610ffc565b60405180910390f35b6100a660048036038101906100a19190610bed565b61043b565b005b6100c260048036038101906100bd9190610ca6565b610638565b005b6100cc610725565b6040516100d99190610f81565b60405180910390f35b6100ea610804565b6040516100f79190610f5f565b60405180910390f35b610108610a6f565b60005b6002805490508160ff161015610435578273ffffffffffffffffffffffffffffffffffffffff1660028260ff168154811061016f577f4e487b7100000000000000000000000000000000000000000000000000000000600052603260045260246000fd5b906000526020600020906004020160030160009054906101000a900473ffffffffffffffffffffffffffffffffffffffff1673ffffffffffffffffffffffffffffffffffffffff1614156104225760028160ff16815481106101fa577f4e487b7100000000000000000000000000000000000000000000000000000000600052603260045260246000fd5b90600052602060002090600402016040518060800160405290816000820180546102239061111b565b80601f016020809104026020016040519081016040528092919081815260200182805461024f9061111b565b801561029c5780601f106102715761010080835404028352916020019161029c565b820191906000526020600020905b81548152906001019060200180831161027f57829003601f168201915b505050505081526020016001820180546102b59061111b565b80601f01602080910402602001604051908101604052809291908181526020018280546102e19061111b565b801561032e5780601f106103035761010080835404028352916020019161032e565b820191906000526020600020905b81548152906001019060200180831161031157829003601f168201915b505050505081526020016002820180546103479061111b565b80601f01602080910402602001604051908101604052809291908181526020018280546103739061111b565b80156103c05780601f10610395576101008083540402835291602001916103c0565b820191906000526020600020905b8154815290600101906020018083116103a357829003601f168201915b505050505081526020016003820160009054906101000a900473ffffffffffffffffffffffffffffffffffffffff1673ffffffffffffffffffffffffffffffffffffffff1673ffffffffffffffffffffffffffffffffffffffff168152505091505b808061042d9061114d565b91505061010b565b50919050565b610443610a6f565b87878080601f016020809104026020016040519081016040528093929190818152602001838380828437600081840152601f19601f82011690508083019250505050505050816000018190525085858080601f016020809104026020016040519081016040528093929190818152602001838380828437600081840152601f19601f82011690508083019250505050505050816020018190525083838080601f016020809104026020016040519081016040528093929190818152602001838380828437600081840152601f19601f82011690508083019250505050505050816040018190525081816060019073ffffffffffffffffffffffffffffffffffffffff16908173ffffffffffffffffffffffffffffffffffffffff1681525050600281908060018154018082558091505060019003906000526020600020906004020160009091909190915060008201518160000190805190602001906105aa929190610aad565b5060208201518160010190805190602001906105c7929190610aad565b5060408201518160020190805190602001906105e4929190610aad565b5060608201518160030160006101000a81548173ffffffffffffffffffffffffffffffffffffffff021916908373ffffffffffffffffffffffffffffffffffffffff16021790555050505050505050505050565b60011515610644610725565b151514610686576040517f08c379a000000000000000000000000000000000000000000000000000000000815260040161067d90610fdc565b60405180910390fd5b6000819050600160009054906101000a900473ffffffffffffffffffffffffffffffffffffffff1673ffffffffffffffffffffffffffffffffffffffff1663fb8aa43d868686856040518563ffffffff1660e01b81526004016106ec9493929190610f9c565b600060405180830381600087803b15801561070657600080fd5b505af115801561071a573d6000803e3d6000fd5b505050505050505050565b60008033905060005b6002805490508160ff1610156107fe578173ffffffffffffffffffffffffffffffffffffffff1660028260ff1681548110610792577f4e487b7100000000000000000000000000000000000000000000000000000000600052603260045260246000fd5b906000526020600020906004020160030160009054906101000a900473ffffffffffffffffffffffffffffffffffffffff1673ffffffffffffffffffffffffffffffffffffffff1614156107eb57600192505050610801565b80806107f69061114d565b91505061072e565b50505b90565b60606002805480602002602001604051908101604052809291908181526020016000905b82821015610a66578382906000526020600020906004020160405180608001604052908160008201805461085b9061111b565b80601f01602080910402602001604051908101604052809291908181526020018280546108879061111b565b80156108d45780601f106108a9576101008083540402835291602001916108d4565b820191906000526020600020905b8154815290600101906020018083116108b757829003601f168201915b505050505081526020016001820180546108ed9061111b565b80601f01602080910402602001604051908101604052809291908181526020018280546109199061111b565b80156109665780601f1061093b57610100808354040283529160200191610966565b820191906000526020600020905b81548152906001019060200180831161094957829003601f168201915b5050505050815260200160028201805461097f9061111b565b80601f01602080910402602001604051908101604052809291908181526020018280546109ab9061111b565b80156109f85780601f106109cd576101008083540402835291602001916109f8565b820191906000526020600020905b8154815290600101906020018083116109db57829003601f168201915b505050505081526020016003820160009054906101000a900473ffffffffffffffffffffffffffffffffffffffff1673ffffffffffffffffffffffffffffffffffffffff1673ffffffffffffffffffffffffffffffffffffffff168152505081526020019060010190610828565b50505050905090565b6040518060800160405280606081526020016060815260200160608152602001600073ffffffffffffffffffffffffffffffffffffffff1681525090565b828054610ab99061111b565b90600052602060002090601f016020900481019282610adb5760008555610b22565b82601f10610af457805160ff1916838001178555610b22565b82800160010185558215610b22579182015b82811115610b21578251825591602001919060010190610b06565b5b509050610b2f9190610b33565b5090565b5b80821115610b4c576000816000905550600101610b34565b5090565b600081359050610b5f816111e6565b92915050565b60008083601f840112610b7757600080fd5b8235905067ffffffffffffffff811115610b9057600080fd5b602083019150836001820283011115610ba857600080fd5b9250929050565b600081359050610bbe816111fd565b92915050565b600060208284031215610bd657600080fd5b6000610be484828501610b50565b91505092915050565b60008060008060008060006080888a031215610c0857600080fd5b600088013567ffffffffffffffff811115610c2257600080fd5b610c2e8a828b01610b65565b9750975050602088013567ffffffffffffffff811115610c4d57600080fd5b610c598a828b01610b65565b9550955050604088013567ffffffffffffffff811115610c7857600080fd5b610c848a828b01610b65565b93509350506060610c978a828b01610b50565b91505092959891949750929550565b60008060008060608587031215610cbc57600080fd5b600085013567ffffffffffffffff811115610cd657600080fd5b610ce287828801610b65565b94509450506020610cf587828801610baf565b9250506040610d0687828801610b50565b91505092959194509250565b6000610d1e8383610e6e565b905092915050565b610d2f81611084565b82525050565b610d3e81611084565b82525050565b6000610d4f8261102e565b610d598185611051565b935083602082028501610d6b8561101e565b8060005b85811015610da75784840389528151610d888582610d12565b9450610d9383611044565b925060208a01995050600181019050610d6f565b50829750879550505050505092915050565b610dc281611096565b82525050565b6000610dd48385611073565b9350610de18385846110d9565b610dea836111d5565b840190509392505050565b6000610e0082611039565b610e0a8185611062565b9350610e1a8185602086016110e8565b610e23816111d5565b840191505092915050565b6000610e3b602083611073565b91507f796f75277265206e6f7420726567697374657220617320696e766573746f722e6000830152602082019050919050565b60006080830160008301518482036000860152610e8b8282610df5565b91505060208301518482036020860152610ea58282610df5565b91505060408301518482036040860152610ebf8282610df5565b9150506060830151610ed46060860182610d26565b508091505092915050565b60006080830160008301518482036000860152610efc8282610df5565b91505060208301518482036020860152610f168282610df5565b91505060408301518482036040860152610f308282610df5565b9150506060830151610f456060860182610d26565b508091505092915050565b610f59816110c2565b82525050565b60006020820190508181036000830152610f798184610d44565b905092915050565b6000602082019050610f966000830184610db9565b92915050565b60006060820190508181036000830152610fb7818688610dc8565b9050610fc66020830185610f50565b610fd36040830184610d35565b95945050505050565b60006020820190508181036000830152610ff581610e2e565b9050919050565b600060208201905081810360008301526110168184610edf565b905092915050565b6000819050602082019050919050565b600081519050919050565b600081519050919050565b6000602082019050919050565b600082825260208201905092915050565b600082825260208201905092915050565b600082825260208201905092915050565b600061108f826110a2565b9050919050565b60008115159050919050565b600073ffffffffffffffffffffffffffffffffffffffff82169050919050565b6000819050919050565b600060ff82169050919050565b82818337600083830152505050565b60005b838110156111065780820151818401526020810190506110eb565b83811115611115576000848401525b50505050565b6000600282049050600182168061113357607f821691505b60208210811415611147576111466111a6565b5b50919050565b6000611158826110cc565b915060ff82141561116c5761116b611177565b5b600182019050919050565b7f4e487b7100000000000000000000000000000000000000000000000000000000600052601160045260246000fd5b7f4e487b7100000000000000000000000000000000000000000000000000000000600052602260045260246000fd5b6000601f19601f8301169050919050565b6111ef81611084565b81146111fa57600080fd5b50565b611206816110c2565b811461121157600080fd5b5056fea2646970667358221220b9f5c34278c6ee1d64acdbb81e271c6b0253b155d39c612b412b2611d8ceea8164736f6c63430008000033",
  "immutableReferences": {},
  "source": "// SPDX-License-Identifier: MIT\r\n// solium-disable linebreak-style\r\npragma solidity >= 0.4.22 < 0.9.0;\r\n\r\nimport \"./ContractOwner.sol\";\r\n\r\ncontract Investor {\r\n    address contractOwner; // address of ContractOwner contract\r\n    ContractOwner contractOwnerObj; // object of ContractOwner contract\r\n\r\n    struct investor_info {\r\n        string name;\r\n        string photo;\r\n        string occupation;\r\n        address account;\r\n    }\r\n\r\n    investor_info [] investors;\r\n \r\n    constructor(address _contractOwner) {\r\n        contractOwner = _contractOwner;\r\n        contractOwnerObj = ContractOwner(_contractOwner);\r\n    }\r\n\r\n    modifier is_investor() {\r\n        require( is_investor_exits() == true, \"you're not register as investor.\" );\r\n        _;\r\n    }\r\n\r\n    function register_investor(string calldata _name, string calldata _photo, string calldata _occupation, address _account ) public {\r\n        investor_info memory investor;\r\n        investor.name = _name;\r\n        investor.photo = _photo;\r\n        investor.occupation = _occupation;\r\n        investor.account = _account;\r\n        investors.push(investor);\r\n    }\r\n\r\n    function getInvestorByAddress(address _account) public view returns(investor_info memory tempInvestor) {\r\n        for(uint8 i=0; i<investors.length; i++) {\r\n            if(investors[i].account == _account) {\r\n                tempInvestor = investors[i];\r\n            }\r\n        }\r\n    }\r\n\r\n    function getInvestors() public view returns(investor_info [] memory) {\r\n        return investors;\r\n    }\r\n\r\n\r\n    // make sure investor is registerd\r\n    function investInIdea(string calldata _code, uint _amount, address _account) public is_investor {\r\n        address account = _account;\r\n        contractOwnerObj.receiveIdeaDonations(_code, _amount, account);\r\n    }\r\n\r\n    function is_investor_exits() public view returns(bool investor) {\r\n        address _account = msg.sender;\r\n        for(uint8 i=0; i<investors.length; i++) {\r\n            if( investors[i].account == _account ) {\r\n                return true;\r\n            }\r\n        }\r\n    }\r\n\r\n}",
  "sourcePath": "E:\\3 - Al Nafi\\Blockchain\\Labs\\side_projects\\crowdfunding_dapp\\contracts\\Investor.sol",
  "compiler": {
    "name": "solc",
    "version": "0.8.0+commit.c7dfd78e.Emscripten.clang"
  },
  "schemaVersion": "3.4.3",
  "updatedAt": "2022-01-07T15:04:08.074Z",
  "devdoc": {
    "kind": "dev",
    "methods": {},
    "version": 1
  },
  "userdoc": {
    "kind": "user",
    "methods": {},
    "version": 1
  }
}